{
	"hw3/BeggingContract.sol": {
		"BeggingContract": {
			"abi": [
				{
					"inputs": [],
					"stateMutability": "nonpayable",
					"type": "constructor"
				},
				{
					"anonymous": false,
					"inputs": [
						{
							"indexed": true,
							"internalType": "address",
							"name": "donor",
							"type": "address"
						},
						{
							"indexed": false,
							"internalType": "uint256",
							"name": "amount",
							"type": "uint256"
						}
					],
					"name": "Donation",
					"type": "event"
				},
				{
					"anonymous": false,
					"inputs": [
						{
							"indexed": false,
							"internalType": "uint256",
							"name": "start",
							"type": "uint256"
						},
						{
							"indexed": false,
							"internalType": "uint256",
							"name": "end",
							"type": "uint256"
						}
					],
					"name": "DonationPeriodSet",
					"type": "event"
				},
				{
					"inputs": [],
					"name": "donate",
					"outputs": [],
					"stateMutability": "payable",
					"type": "function"
				},
				{
					"inputs": [],
					"name": "donationEndTime",
					"outputs": [
						{
							"internalType": "uint256",
							"name": "",
							"type": "uint256"
						}
					],
					"stateMutability": "view",
					"type": "function"
				},
				{
					"inputs": [],
					"name": "donationStartTime",
					"outputs": [
						{
							"internalType": "uint256",
							"name": "",
							"type": "uint256"
						}
					],
					"stateMutability": "view",
					"type": "function"
				},
				{
					"inputs": [
						{
							"internalType": "address",
							"name": "",
							"type": "address"
						}
					],
					"name": "donations",
					"outputs": [
						{
							"internalType": "uint256",
							"name": "",
							"type": "uint256"
						}
					],
					"stateMutability": "view",
					"type": "function"
				},
				{
					"inputs": [
						{
							"internalType": "address",
							"name": "donor",
							"type": "address"
						}
					],
					"name": "getDonation",
					"outputs": [
						{
							"internalType": "uint256",
							"name": "",
							"type": "uint256"
						}
					],
					"stateMutability": "view",
					"type": "function"
				},
				{
					"inputs": [],
					"name": "getTopDonors",
					"outputs": [
						{
							"internalType": "address[3]",
							"name": "",
							"type": "address[3]"
						},
						{
							"internalType": "uint256[3]",
							"name": "",
							"type": "uint256[3]"
						}
					],
					"stateMutability": "view",
					"type": "function"
				},
				{
					"inputs": [
						{
							"internalType": "uint256",
							"name": "_startTime",
							"type": "uint256"
						},
						{
							"internalType": "uint256",
							"name": "_endTime",
							"type": "uint256"
						}
					],
					"name": "setDonationPeriod",
					"outputs": [],
					"stateMutability": "nonpayable",
					"type": "function"
				},
				{
					"inputs": [],
					"name": "withdraw",
					"outputs": [],
					"stateMutability": "nonpayable",
					"type": "function"
				}
			],
			"devdoc": {
				"kind": "dev",
				"methods": {},
				"version": 1
			},
			"evm": {
				"assembly": "    /* \"hw3/BeggingContract.sol\":57:2719  contract BeggingContract {... */\n  mstore(0x40, 0x80)\n    /* \"hw3/BeggingContract.sol\":392:441  constructor(){... */\n  callvalue\n  dup1\n  iszero\n  tag_1\n  jumpi\n  revert(0x00, 0x00)\ntag_1:\n  pop\n    /* \"hw3/BeggingContract.sol\":424:434  msg.sender */\n  caller\n    /* \"hw3/BeggingContract.sol\":415:421  _owner */\n  0x01\n  0x00\n    /* \"hw3/BeggingContract.sol\":415:434  _owner = msg.sender */\n  0x0100\n  exp\n  dup2\n  sload\n  dup2\n  0xffffffffffffffffffffffffffffffffffffffff\n  mul\n  not\n  and\n  swap1\n  dup4\n  0xffffffffffffffffffffffffffffffffffffffff\n  and\n  mul\n  or\n  swap1\n  sstore\n  pop\n    /* \"hw3/BeggingContract.sol\":57:2719  contract BeggingContract {... */\n  dataSize(sub_0)\n  dup1\n  dataOffset(sub_0)\n  0x00\n  codecopy\n  0x00\n  return\nstop\n\nsub_0: assembly {\n        /* \"hw3/BeggingContract.sol\":57:2719  contract BeggingContract {... */\n      mstore(0x40, 0x80)\n      jumpi(tag_1, lt(calldatasize, 0x04))\n      shr(0xe0, calldataload(0x00))\n      dup1\n      0xcc6cb19a\n      gt\n      tag_10\n      jumpi\n      dup1\n      0xcc6cb19a\n      eq\n      tag_6\n      jumpi\n      dup1\n      0xd6387ed8\n      eq\n      tag_7\n      jumpi\n      dup1\n      0xed88c68e\n      eq\n      tag_8\n      jumpi\n      dup1\n      0xf12a4a53\n      eq\n      tag_9\n      jumpi\n      jump(tag_1)\n    tag_10:\n      dup1\n      0x1d3ab099\n      eq\n      tag_2\n      jumpi\n      dup1\n      0x3ccfd60b\n      eq\n      tag_3\n      jumpi\n      dup1\n      0x410a1d32\n      eq\n      tag_4\n      jumpi\n      dup1\n      0x78331552\n      eq\n      tag_5\n      jumpi\n    tag_1:\n      revert(0x00, 0x00)\n        /* \"hw3/BeggingContract.sol\":801:1100  function setDonationPeriod(uint256 _startTime, uint256 _endTime) external onlyOwner {... */\n    tag_2:\n      callvalue\n      dup1\n      iszero\n      tag_11\n      jumpi\n      revert(0x00, 0x00)\n    tag_11:\n      pop\n      tag_12\n      0x04\n      dup1\n      calldatasize\n      sub\n      dup2\n      add\n      swap1\n      tag_13\n      swap2\n      swap1\n      tag_14\n      jump\t// in\n    tag_13:\n      tag_15\n      jump\t// in\n    tag_12:\n      stop\n        /* \"hw3/BeggingContract.sol\":1408:1633  function withdraw() public onlyOwner {... */\n    tag_3:\n      callvalue\n      dup1\n      iszero\n      tag_16\n      jumpi\n      revert(0x00, 0x00)\n    tag_16:\n      pop\n      tag_17\n      tag_18\n      jump\t// in\n    tag_17:\n      stop\n        /* \"hw3/BeggingContract.sol\":1639:1745  function getDonation(address donor) public view returns (uint256) {... */\n    tag_4:\n      callvalue\n      dup1\n      iszero\n      tag_19\n      jumpi\n      revert(0x00, 0x00)\n    tag_19:\n      pop\n      tag_20\n      0x04\n      dup1\n      calldatasize\n      sub\n      dup2\n      add\n      swap1\n      tag_21\n      swap2\n      swap1\n      tag_22\n      jump\t// in\n    tag_21:\n      tag_23\n      jump\t// in\n    tag_20:\n      mload(0x40)\n      tag_24\n      swap2\n      swap1\n      tag_25\n      jump\t// in\n    tag_24:\n      mload(0x40)\n      dup1\n      swap2\n      sub\n      swap1\n      return\n        /* \"hw3/BeggingContract.sol\":200:232  uint256 public donationStartTime */\n    tag_5:\n      callvalue\n      dup1\n      iszero\n      tag_26\n      jumpi\n      revert(0x00, 0x00)\n    tag_26:\n      pop\n      tag_27\n      tag_28\n      jump\t// in\n    tag_27:\n      mload(0x40)\n      tag_29\n      swap2\n      swap1\n      tag_25\n      jump\t// in\n    tag_29:\n      mload(0x40)\n      dup1\n      swap2\n      sub\n      swap1\n      return\n        /* \"hw3/BeggingContract.sol\":90:132  mapping(address=>uint256) public donations */\n    tag_6:\n      callvalue\n      dup1\n      iszero\n      tag_30\n      jumpi\n      revert(0x00, 0x00)\n    tag_30:\n      pop\n      tag_31\n      0x04\n      dup1\n      calldatasize\n      sub\n      dup2\n      add\n      swap1\n      tag_32\n      swap2\n      swap1\n      tag_22\n      jump\t// in\n    tag_32:\n      tag_33\n      jump\t// in\n    tag_31:\n      mload(0x40)\n      tag_34\n      swap2\n      swap1\n      tag_25\n      jump\t// in\n    tag_34:\n      mload(0x40)\n      dup1\n      swap2\n      sub\n      swap1\n      return\n        /* \"hw3/BeggingContract.sol\":1751:2717  function getTopDonors() public view returns (address[3] memory, uint256[3] memory) {... */\n    tag_7:\n      callvalue\n      dup1\n      iszero\n      tag_35\n      jumpi\n      revert(0x00, 0x00)\n    tag_35:\n      pop\n      tag_36\n      tag_37\n      jump\t// in\n    tag_36:\n      mload(0x40)\n      tag_38\n      swap3\n      swap2\n      swap1\n      tag_39\n      jump\t// in\n    tag_38:\n      mload(0x40)\n      dup1\n      swap2\n      sub\n      swap1\n      return\n        /* \"hw3/BeggingContract.sol\":1106:1402  function donate() public payable {... */\n    tag_8:\n      tag_40\n      tag_41\n      jump\t// in\n    tag_40:\n      stop\n        /* \"hw3/BeggingContract.sol\":238:268  uint256 public donationEndTime */\n    tag_9:\n      callvalue\n      dup1\n      iszero\n      tag_42\n      jumpi\n      revert(0x00, 0x00)\n    tag_42:\n      pop\n      tag_43\n      tag_44\n      jump\t// in\n    tag_43:\n      mload(0x40)\n      tag_45\n      swap2\n      swap1\n      tag_25\n      jump\t// in\n    tag_45:\n      mload(0x40)\n      dup1\n      swap2\n      sub\n      swap1\n      return\n        /* \"hw3/BeggingContract.sol\":801:1100  function setDonationPeriod(uint256 _startTime, uint256 _endTime) external onlyOwner {... */\n    tag_15:\n        /* \"hw3/BeggingContract.sol\":508:514  _owner */\n      0x01\n      0x00\n      swap1\n      sload\n      swap1\n      0x0100\n      exp\n      swap1\n      div\n      0xffffffffffffffffffffffffffffffffffffffff\n      and\n        /* \"hw3/BeggingContract.sol\":494:514  msg.sender == _owner */\n      0xffffffffffffffffffffffffffffffffffffffff\n      and\n        /* \"hw3/BeggingContract.sol\":494:504  msg.sender */\n      caller\n        /* \"hw3/BeggingContract.sol\":494:514  msg.sender == _owner */\n      0xffffffffffffffffffffffffffffffffffffffff\n      and\n      eq\n        /* \"hw3/BeggingContract.sol\":486:552  require(msg.sender == _owner, \"Only owner can call this function\") */\n      tag_47\n      jumpi\n      mload(0x40)\n      0x08c379a000000000000000000000000000000000000000000000000000000000\n      dup2\n      mstore\n      0x04\n      add\n      tag_48\n      swap1\n      tag_49\n      jump\t// in\n    tag_48:\n      mload(0x40)\n      dup1\n      swap2\n      sub\n      swap1\n      revert\n    tag_47:\n        /* \"hw3/BeggingContract.sol\":916:924  _endTime */\n      dup1\n        /* \"hw3/BeggingContract.sol\":903:913  _startTime */\n      dup3\n        /* \"hw3/BeggingContract.sol\":903:924  _startTime < _endTime */\n      lt\n        /* \"hw3/BeggingContract.sol\":895:963  require(_startTime < _endTime, \"Start time must be before end time\") */\n      tag_51\n      jumpi\n      mload(0x40)\n      0x08c379a000000000000000000000000000000000000000000000000000000000\n      dup2\n      mstore\n      0x04\n      add\n      tag_52\n      swap1\n      tag_53\n      jump\t// in\n    tag_52:\n      mload(0x40)\n      dup1\n      swap2\n      sub\n      swap1\n      revert\n    tag_51:\n        /* \"hw3/BeggingContract.sol\":993:1003  _startTime */\n      dup2\n        /* \"hw3/BeggingContract.sol\":973:990  donationStartTime */\n      0x03\n        /* \"hw3/BeggingContract.sol\":973:1003  donationStartTime = _startTime */\n      dup2\n      swap1\n      sstore\n      pop\n        /* \"hw3/BeggingContract.sol\":1031:1039  _endTime */\n      dup1\n        /* \"hw3/BeggingContract.sol\":1013:1028  donationEndTime */\n      0x04\n        /* \"hw3/BeggingContract.sol\":1013:1039  donationEndTime = _endTime */\n      dup2\n      swap1\n      sstore\n      pop\n        /* \"hw3/BeggingContract.sol\":1054:1093  DonationPeriodSet(_startTime, _endTime) */\n      0xeba8616b6cbcf6dd18b28ca1a9205eac87bf5bd8649c3bc96b62287a9f1afe2b\n        /* \"hw3/BeggingContract.sol\":1072:1082  _startTime */\n      dup3\n        /* \"hw3/BeggingContract.sol\":1084:1092  _endTime */\n      dup3\n        /* \"hw3/BeggingContract.sol\":1054:1093  DonationPeriodSet(_startTime, _endTime) */\n      mload(0x40)\n      tag_54\n      swap3\n      swap2\n      swap1\n      tag_55\n      jump\t// in\n    tag_54:\n      mload(0x40)\n      dup1\n      swap2\n      sub\n      swap1\n      log1\n        /* \"hw3/BeggingContract.sol\":801:1100  function setDonationPeriod(uint256 _startTime, uint256 _endTime) external onlyOwner {... */\n      pop\n      pop\n      jump\t// out\n        /* \"hw3/BeggingContract.sol\":1408:1633  function withdraw() public onlyOwner {... */\n    tag_18:\n        /* \"hw3/BeggingContract.sol\":508:514  _owner */\n      0x01\n      0x00\n      swap1\n      sload\n      swap1\n      0x0100\n      exp\n      swap1\n      div\n      0xffffffffffffffffffffffffffffffffffffffff\n      and\n        /* \"hw3/BeggingContract.sol\":494:514  msg.sender == _owner */\n      0xffffffffffffffffffffffffffffffffffffffff\n      and\n        /* \"hw3/BeggingContract.sol\":494:504  msg.sender */\n      caller\n        /* \"hw3/BeggingContract.sol\":494:514  msg.sender == _owner */\n      0xffffffffffffffffffffffffffffffffffffffff\n      and\n      eq\n        /* \"hw3/BeggingContract.sol\":486:552  require(msg.sender == _owner, \"Only owner can call this function\") */\n      tag_57\n      jumpi\n      mload(0x40)\n      0x08c379a000000000000000000000000000000000000000000000000000000000\n      dup2\n      mstore\n      0x04\n      add\n      tag_58\n      swap1\n      tag_49\n      jump\t// in\n    tag_58:\n      mload(0x40)\n      dup1\n      swap2\n      sub\n      swap1\n      revert\n    tag_57:\n        /* \"hw3/BeggingContract.sol\":1516:1528  bool success */\n      0x00\n        /* \"hw3/BeggingContract.sol\":1534:1540  _owner */\n      0x01\n      0x00\n      swap1\n      sload\n      swap1\n      0x0100\n      exp\n      swap1\n      div\n      0xffffffffffffffffffffffffffffffffffffffff\n      and\n        /* \"hw3/BeggingContract.sol\":1534:1545  _owner.call */\n      0xffffffffffffffffffffffffffffffffffffffff\n      and\n        /* \"hw3/BeggingContract.sol\":1553:1574  address(this).balance */\n      selfbalance\n        /* \"hw3/BeggingContract.sol\":1534:1579  _owner.call{value: address(this).balance}(\"\") */\n      mload(0x40)\n      tag_60\n      swap1\n      tag_61\n      jump\t// in\n    tag_60:\n      0x00\n      mload(0x40)\n      dup1\n      dup4\n      sub\n      dup2\n      dup6\n      dup8\n      gas\n      call\n      swap3\n      pop\n      pop\n      pop\n      returndatasize\n      dup1\n      0x00\n      dup2\n      eq\n      tag_64\n      jumpi\n      mload(0x40)\n      swap2\n      pop\n      and(add(returndatasize, 0x3f), not(0x1f))\n      dup3\n      add\n      0x40\n      mstore\n      returndatasize\n      dup3\n      mstore\n      returndatasize\n      0x00\n      0x20\n      dup5\n      add\n      returndatacopy\n      jump(tag_63)\n    tag_64:\n      0x60\n      swap2\n      pop\n    tag_63:\n      pop\n        /* \"hw3/BeggingContract.sol\":1515:1579  (bool success, ) = _owner.call{value: address(this).balance}(\"\") */\n      pop\n      swap1\n      pop\n        /* \"hw3/BeggingContract.sol\":1597:1604  success */\n      dup1\n        /* \"hw3/BeggingContract.sol\":1589:1626  require(success, \"Withdrawal failed\") */\n      tag_65\n      jumpi\n      mload(0x40)\n      0x08c379a000000000000000000000000000000000000000000000000000000000\n      dup2\n      mstore\n      0x04\n      add\n      tag_66\n      swap1\n      tag_67\n      jump\t// in\n    tag_66:\n      mload(0x40)\n      dup1\n      swap2\n      sub\n      swap1\n      revert\n    tag_65:\n        /* \"hw3/BeggingContract.sol\":1445:1633  {... */\n      pop\n        /* \"hw3/BeggingContract.sol\":1408:1633  function withdraw() public onlyOwner {... */\n      jump\t// out\n        /* \"hw3/BeggingContract.sol\":1639:1745  function getDonation(address donor) public view returns (uint256) {... */\n    tag_23:\n        /* \"hw3/BeggingContract.sol\":1696:1703  uint256 */\n      0x00\n        /* \"hw3/BeggingContract.sol\":1722:1731  donations */\n      0x00\n        /* \"hw3/BeggingContract.sol\":1722:1738  donations[donor] */\n      0x00\n        /* \"hw3/BeggingContract.sol\":1732:1737  donor */\n      dup4\n        /* \"hw3/BeggingContract.sol\":1722:1738  donations[donor] */\n      0xffffffffffffffffffffffffffffffffffffffff\n      and\n      0xffffffffffffffffffffffffffffffffffffffff\n      and\n      dup2\n      mstore\n      0x20\n      add\n      swap1\n      dup2\n      mstore\n      0x20\n      add\n      0x00\n      keccak256\n      sload\n        /* \"hw3/BeggingContract.sol\":1715:1738  return donations[donor] */\n      swap1\n      pop\n        /* \"hw3/BeggingContract.sol\":1639:1745  function getDonation(address donor) public view returns (uint256) {... */\n      swap2\n      swap1\n      pop\n      jump\t// out\n        /* \"hw3/BeggingContract.sol\":200:232  uint256 public donationStartTime */\n    tag_28:\n      sload(0x03)\n      dup2\n      jump\t// out\n        /* \"hw3/BeggingContract.sol\":90:132  mapping(address=>uint256) public donations */\n    tag_33:\n      mstore(0x20, 0x00)\n      dup1\n      0x00\n      mstore\n      keccak256(0x00, 0x40)\n      0x00\n      swap2\n      pop\n      swap1\n      pop\n      sload\n      dup2\n      jump\t// out\n        /* \"hw3/BeggingContract.sol\":1751:2717  function getTopDonors() public view returns (address[3] memory, uint256[3] memory) {... */\n    tag_37:\n        /* \"hw3/BeggingContract.sol\":1796:1813  address[3] memory */\n      tag_69\n      tag_70\n      jump\t// in\n    tag_69:\n        /* \"hw3/BeggingContract.sol\":1815:1832  uint256[3] memory */\n      tag_71\n      tag_72\n      jump\t// in\n    tag_71:\n        /* \"hw3/BeggingContract.sol\":1844:1874  address[3] memory topAddresses */\n      tag_74\n      tag_70\n      jump\t// in\n    tag_74:\n        /* \"hw3/BeggingContract.sol\":1884:1912  uint256[3] memory topAmounts */\n      tag_75\n      tag_72\n      jump\t// in\n    tag_75:\n        /* \"hw3/BeggingContract.sol\":1937:1943  uint i */\n      0x00\n        /* \"hw3/BeggingContract.sol\":1946:1947  0 */\n      0x00\n        /* \"hw3/BeggingContract.sol\":1937:1947  uint i = 0 */\n      swap1\n      pop\n        /* \"hw3/BeggingContract.sol\":1932:2659  for (uint i = 0; i < _accounts.length; i++) {... */\n    tag_76:\n        /* \"hw3/BeggingContract.sol\":1953:1962  _accounts */\n      0x02\n        /* \"hw3/BeggingContract.sol\":1953:1969  _accounts.length */\n      dup1\n      sload\n      swap1\n      pop\n        /* \"hw3/BeggingContract.sol\":1949:1950  i */\n      dup2\n        /* \"hw3/BeggingContract.sol\":1949:1969  i < _accounts.length */\n      lt\n        /* \"hw3/BeggingContract.sol\":1932:2659  for (uint i = 0; i < _accounts.length; i++) {... */\n      iszero\n      tag_77\n      jumpi\n        /* \"hw3/BeggingContract.sol\":1990:2009  address currentAddr */\n      0x00\n        /* \"hw3/BeggingContract.sol\":2012:2021  _accounts */\n      0x02\n        /* \"hw3/BeggingContract.sol\":2022:2023  i */\n      dup3\n        /* \"hw3/BeggingContract.sol\":2012:2024  _accounts[i] */\n      dup2\n      sload\n      dup2\n      lt\n      tag_79\n      jumpi\n      tag_80\n      tag_81\n      jump\t// in\n    tag_80:\n    tag_79:\n      swap1\n      0x00\n      mstore\n      keccak256(0x00, 0x20)\n      add\n      0x00\n      swap1\n      sload\n      swap1\n      0x0100\n      exp\n      swap1\n      div\n      0xffffffffffffffffffffffffffffffffffffffff\n      and\n        /* \"hw3/BeggingContract.sol\":1990:2024  address currentAddr = _accounts[i] */\n      swap1\n      pop\n        /* \"hw3/BeggingContract.sol\":2038:2056  uint256 currentBal */\n      0x00\n        /* \"hw3/BeggingContract.sol\":2059:2068  donations */\n      0x00\n        /* \"hw3/BeggingContract.sol\":2059:2081  donations[currentAddr] */\n      0x00\n        /* \"hw3/BeggingContract.sol\":2069:2080  currentAddr */\n      dup4\n        /* \"hw3/BeggingContract.sol\":2059:2081  donations[currentAddr] */\n      0xffffffffffffffffffffffffffffffffffffffff\n      and\n      0xffffffffffffffffffffffffffffffffffffffff\n      and\n      dup2\n      mstore\n      0x20\n      add\n      swap1\n      dup2\n      mstore\n      0x20\n      add\n      0x00\n      keccak256\n      sload\n        /* \"hw3/BeggingContract.sol\":2038:2081  uint256 currentBal = donations[currentAddr] */\n      swap1\n      pop\n        /* \"hw3/BeggingContract.sol\":2156:2162  uint j */\n      0x00\n        /* \"hw3/BeggingContract.sol\":2165:2166  0 */\n      0x00\n        /* \"hw3/BeggingContract.sol\":2156:2166  uint j = 0 */\n      swap1\n      pop\n        /* \"hw3/BeggingContract.sol\":2151:2649  for (uint j = 0; j < 3; j++) {... */\n    tag_83:\n        /* \"hw3/BeggingContract.sol\":2172:2173  3 */\n      0x03\n        /* \"hw3/BeggingContract.sol\":2168:2169  j */\n      dup2\n        /* \"hw3/BeggingContract.sol\":2168:2173  j < 3 */\n      lt\n        /* \"hw3/BeggingContract.sol\":2151:2649  for (uint j = 0; j < 3; j++) {... */\n      iszero\n      tag_84\n      jumpi\n        /* \"hw3/BeggingContract.sol\":2215:2225  topAmounts */\n      dup5\n        /* \"hw3/BeggingContract.sol\":2226:2227  j */\n      dup2\n        /* \"hw3/BeggingContract.sol\":2215:2228  topAmounts[j] */\n      0x03\n      dup2\n      lt\n      tag_86\n      jumpi\n      tag_87\n      tag_81\n      jump\t// in\n    tag_87:\n    tag_86:\n      0x20\n      mul\n      add\n      mload\n        /* \"hw3/BeggingContract.sol\":2202:2212  currentBal */\n      dup3\n        /* \"hw3/BeggingContract.sol\":2202:2228  currentBal > topAmounts[j] */\n      gt\n        /* \"hw3/BeggingContract.sol\":2198:2635  if (currentBal > topAmounts[j]) {... */\n      iszero\n      tag_88\n      jumpi\n        /* \"hw3/BeggingContract.sol\":2326:2332  uint k */\n      0x00\n        /* \"hw3/BeggingContract.sol\":2335:2336  2 */\n      0x02\n        /* \"hw3/BeggingContract.sol\":2326:2336  uint k = 2 */\n      swap1\n      pop\n        /* \"hw3/BeggingContract.sol\":2321:2491  for (uint k = 2; k > j; k--) {... */\n    tag_89:\n        /* \"hw3/BeggingContract.sol\":2342:2343  j */\n      dup2\n        /* \"hw3/BeggingContract.sol\":2338:2339  k */\n      dup2\n        /* \"hw3/BeggingContract.sol\":2338:2343  k > j */\n      gt\n        /* \"hw3/BeggingContract.sol\":2321:2491  for (uint k = 2; k > j; k--) {... */\n      iszero\n      tag_90\n      jumpi\n        /* \"hw3/BeggingContract.sol\":2392:2402  topAmounts */\n      dup6\n        /* \"hw3/BeggingContract.sol\":2405:2406  1 */\n      0x01\n        /* \"hw3/BeggingContract.sol\":2403:2404  k */\n      dup3\n        /* \"hw3/BeggingContract.sol\":2403:2406  k-1 */\n      tag_92\n      swap2\n      swap1\n      tag_93\n      jump\t// in\n    tag_92:\n        /* \"hw3/BeggingContract.sol\":2392:2407  topAmounts[k-1] */\n      0x03\n      dup2\n      lt\n      tag_94\n      jumpi\n      tag_95\n      tag_81\n      jump\t// in\n    tag_95:\n    tag_94:\n      0x20\n      mul\n      add\n      mload\n        /* \"hw3/BeggingContract.sol\":2376:2386  topAmounts */\n      dup7\n        /* \"hw3/BeggingContract.sol\":2387:2388  k */\n      dup3\n        /* \"hw3/BeggingContract.sol\":2376:2389  topAmounts[k] */\n      0x03\n      dup2\n      lt\n      tag_96\n      jumpi\n      tag_97\n      tag_81\n      jump\t// in\n    tag_97:\n    tag_96:\n      0x20\n      mul\n      add\n        /* \"hw3/BeggingContract.sol\":2376:2407  topAmounts[k] = topAmounts[k-1] */\n      dup2\n      dup2\n      mstore\n      pop\n      pop\n        /* \"hw3/BeggingContract.sol\":2451:2463  topAddresses */\n      dup7\n        /* \"hw3/BeggingContract.sol\":2466:2467  1 */\n      0x01\n        /* \"hw3/BeggingContract.sol\":2464:2465  k */\n      dup3\n        /* \"hw3/BeggingContract.sol\":2464:2467  k-1 */\n      tag_98\n      swap2\n      swap1\n      tag_93\n      jump\t// in\n    tag_98:\n        /* \"hw3/BeggingContract.sol\":2451:2468  topAddresses[k-1] */\n      0x03\n      dup2\n      lt\n      tag_99\n      jumpi\n      tag_100\n      tag_81\n      jump\t// in\n    tag_100:\n    tag_99:\n      0x20\n      mul\n      add\n      mload\n        /* \"hw3/BeggingContract.sol\":2433:2445  topAddresses */\n      dup8\n        /* \"hw3/BeggingContract.sol\":2446:2447  k */\n      dup3\n        /* \"hw3/BeggingContract.sol\":2433:2448  topAddresses[k] */\n      0x03\n      dup2\n      lt\n      tag_101\n      jumpi\n      tag_102\n      tag_81\n      jump\t// in\n    tag_102:\n    tag_101:\n      0x20\n      mul\n      add\n        /* \"hw3/BeggingContract.sol\":2433:2468  topAddresses[k] = topAddresses[k-1] */\n      swap1\n      0xffffffffffffffffffffffffffffffffffffffff\n      and\n      swap1\n      dup2\n      0xffffffffffffffffffffffffffffffffffffffff\n      and\n      dup2\n      mstore\n      pop\n      pop\n        /* \"hw3/BeggingContract.sol\":2345:2348  k-- */\n      dup1\n      dup1\n      tag_103\n      swap1\n      tag_104\n      jump\t// in\n    tag_103:\n      swap2\n      pop\n      pop\n        /* \"hw3/BeggingContract.sol\":2321:2491  for (uint k = 2; k > j; k--) {... */\n      jump(tag_89)\n    tag_90:\n      pop\n        /* \"hw3/BeggingContract.sol\":2528:2538  currentBal */\n      dup2\n        /* \"hw3/BeggingContract.sol\":2512:2522  topAmounts */\n      dup6\n        /* \"hw3/BeggingContract.sol\":2523:2524  j */\n      dup3\n        /* \"hw3/BeggingContract.sol\":2512:2525  topAmounts[j] */\n      0x03\n      dup2\n      lt\n      tag_105\n      jumpi\n      tag_106\n      tag_81\n      jump\t// in\n    tag_106:\n    tag_105:\n      0x20\n      mul\n      add\n        /* \"hw3/BeggingContract.sol\":2512:2538  topAmounts[j] = currentBal */\n      dup2\n      dup2\n      mstore\n      pop\n      pop\n        /* \"hw3/BeggingContract.sol\":2578:2589  currentAddr */\n      dup3\n        /* \"hw3/BeggingContract.sol\":2560:2572  topAddresses */\n      dup7\n        /* \"hw3/BeggingContract.sol\":2573:2574  j */\n      dup3\n        /* \"hw3/BeggingContract.sol\":2560:2575  topAddresses[j] */\n      0x03\n      dup2\n      lt\n      tag_107\n      jumpi\n      tag_108\n      tag_81\n      jump\t// in\n    tag_108:\n    tag_107:\n      0x20\n      mul\n      add\n        /* \"hw3/BeggingContract.sol\":2560:2589  topAddresses[j] = currentAddr */\n      swap1\n      0xffffffffffffffffffffffffffffffffffffffff\n      and\n      swap1\n      dup2\n      0xffffffffffffffffffffffffffffffffffffffff\n      and\n      dup2\n      mstore\n      pop\n      pop\n        /* \"hw3/BeggingContract.sol\":2611:2616  break */\n      jump(tag_84)\n        /* \"hw3/BeggingContract.sol\":2198:2635  if (currentBal > topAmounts[j]) {... */\n    tag_88:\n        /* \"hw3/BeggingContract.sol\":2175:2178  j++ */\n      dup1\n      dup1\n      0x01\n      add\n      swap2\n      pop\n      pop\n        /* \"hw3/BeggingContract.sol\":2151:2649  for (uint j = 0; j < 3; j++) {... */\n      jump(tag_83)\n    tag_84:\n      pop\n        /* \"hw3/BeggingContract.sol\":1976:2659  {... */\n      pop\n      pop\n        /* \"hw3/BeggingContract.sol\":1971:1974  i++ */\n      dup1\n      dup1\n      0x01\n      add\n      swap2\n      pop\n      pop\n        /* \"hw3/BeggingContract.sol\":1932:2659  for (uint i = 0; i < _accounts.length; i++) {... */\n      jump(tag_76)\n    tag_77:\n      pop\n        /* \"hw3/BeggingContract.sol\":2685:2697  topAddresses */\n      dup2\n        /* \"hw3/BeggingContract.sol\":2699:2709  topAmounts */\n      dup2\n        /* \"hw3/BeggingContract.sol\":2677:2710  return (topAddresses, topAmounts) */\n      swap4\n      pop\n      swap4\n      pop\n      pop\n      pop\n        /* \"hw3/BeggingContract.sol\":1751:2717  function getTopDonors() public view returns (address[3] memory, uint256[3] memory) {... */\n      swap1\n      swap2\n      jump\t// out\n        /* \"hw3/BeggingContract.sol\":1106:1402  function donate() public payable {... */\n    tag_41:\n        /* \"hw3/BeggingContract.sol\":1169:1170  0 */\n      0x00\n        /* \"hw3/BeggingContract.sol\":1157:1166  msg.value */\n      callvalue\n        /* \"hw3/BeggingContract.sol\":1157:1170  msg.value > 0 */\n      gt\n        /* \"hw3/BeggingContract.sol\":1149:1213  require(msg.value > 0, \"Donation amount must be greater than 0\") */\n      tag_110\n      jumpi\n      mload(0x40)\n      0x08c379a000000000000000000000000000000000000000000000000000000000\n      dup2\n      mstore\n      0x04\n      add\n      tag_111\n      swap1\n      tag_112\n      jump\t// in\n    tag_111:\n      mload(0x40)\n      dup1\n      swap2\n      sub\n      swap1\n      revert\n    tag_110:\n        /* \"hw3/BeggingContract.sol\":1252:1253  0 */\n      0x00\n        /* \"hw3/BeggingContract.sol\":1227:1236  donations */\n      0x00\n        /* \"hw3/BeggingContract.sol\":1227:1248  donations[msg.sender] */\n      0x00\n        /* \"hw3/BeggingContract.sol\":1237:1247  msg.sender */\n      caller\n        /* \"hw3/BeggingContract.sol\":1227:1248  donations[msg.sender] */\n      0xffffffffffffffffffffffffffffffffffffffff\n      and\n      0xffffffffffffffffffffffffffffffffffffffff\n      and\n      dup2\n      mstore\n      0x20\n      add\n      swap1\n      dup2\n      mstore\n      0x20\n      add\n      0x00\n      keccak256\n      sload\n        /* \"hw3/BeggingContract.sol\":1227:1253  donations[msg.sender] == 0 */\n      sub\n        /* \"hw3/BeggingContract.sol\":1223:1306  if (donations[msg.sender] == 0) {... */\n      tag_113\n      jumpi\n        /* \"hw3/BeggingContract.sol\":1269:1278  _accounts */\n      0x02\n        /* \"hw3/BeggingContract.sol\":1284:1294  msg.sender */\n      caller\n        /* \"hw3/BeggingContract.sol\":1269:1295  _accounts.push(msg.sender) */\n      swap1\n      dup1\n      0x01\n      dup2\n      sload\n      add\n      dup1\n      dup3\n      sstore\n      dup1\n      swap2\n      pop\n      pop\n      0x01\n      swap1\n      sub\n      swap1\n      0x00\n      mstore\n      keccak256(0x00, 0x20)\n      add\n      0x00\n      swap1\n      swap2\n      swap1\n      swap2\n      swap1\n      swap2\n      0x0100\n      exp\n      dup2\n      sload\n      dup2\n      0xffffffffffffffffffffffffffffffffffffffff\n      mul\n      not\n      and\n      swap1\n      dup4\n      0xffffffffffffffffffffffffffffffffffffffff\n      and\n      mul\n      or\n      swap1\n      sstore\n      pop\n        /* \"hw3/BeggingContract.sol\":1223:1306  if (donations[msg.sender] == 0) {... */\n    tag_113:\n        /* \"hw3/BeggingContract.sol\":1340:1349  msg.value */\n      callvalue\n        /* \"hw3/BeggingContract.sol\":1315:1324  donations */\n      0x00\n        /* \"hw3/BeggingContract.sol\":1315:1336  donations[msg.sender] */\n      0x00\n        /* \"hw3/BeggingContract.sol\":1325:1335  msg.sender */\n      caller\n        /* \"hw3/BeggingContract.sol\":1315:1336  donations[msg.sender] */\n      0xffffffffffffffffffffffffffffffffffffffff\n      and\n      0xffffffffffffffffffffffffffffffffffffffff\n      and\n      dup2\n      mstore\n      0x20\n      add\n      swap1\n      dup2\n      mstore\n      0x20\n      add\n      0x00\n      keccak256\n      0x00\n        /* \"hw3/BeggingContract.sol\":1315:1349  donations[msg.sender] += msg.value */\n      dup3\n      dup3\n      sload\n      tag_115\n      swap2\n      swap1\n      tag_116\n      jump\t// in\n    tag_115:\n      swap3\n      pop\n      pop\n      dup2\n      swap1\n      sstore\n      pop\n        /* \"hw3/BeggingContract.sol\":1373:1383  msg.sender */\n      caller\n        /* \"hw3/BeggingContract.sol\":1364:1395  Donation(msg.sender, msg.value) */\n      0xffffffffffffffffffffffffffffffffffffffff\n      and\n      0x5d8bc849764969eb1bcc6d0a2f55999d0167c1ccec240a4f39cf664ca9c4148e\n        /* \"hw3/BeggingContract.sol\":1385:1394  msg.value */\n      callvalue\n        /* \"hw3/BeggingContract.sol\":1364:1395  Donation(msg.sender, msg.value) */\n      mload(0x40)\n      tag_117\n      swap2\n      swap1\n      tag_25\n      jump\t// in\n    tag_117:\n      mload(0x40)\n      dup1\n      swap2\n      sub\n      swap1\n      log2\n        /* \"hw3/BeggingContract.sol\":1106:1402  function donate() public payable {... */\n      jump\t// out\n        /* \"hw3/BeggingContract.sol\":238:268  uint256 public donationEndTime */\n    tag_44:\n      sload(0x04)\n      dup2\n      jump\t// out\n    tag_70:\n      mload(0x40)\n      dup1\n      0x60\n      add\n      0x40\n      mstore\n      dup1\n      0x03\n      swap1\n      0x20\n      dup3\n      mul\n      dup1\n      calldatasize\n      dup4\n      calldatacopy\n      dup1\n      dup3\n      add\n      swap2\n      pop\n      pop\n      swap1\n      pop\n      pop\n      swap1\n      jump\t// out\n    tag_72:\n      mload(0x40)\n      dup1\n      0x60\n      add\n      0x40\n      mstore\n      dup1\n      0x03\n      swap1\n      0x20\n      dup3\n      mul\n      dup1\n      calldatasize\n      dup4\n      calldatacopy\n      dup1\n      dup3\n      add\n      swap2\n      pop\n      pop\n      swap1\n      pop\n      pop\n      swap1\n      jump\t// out\n        /* \"#utility.yul\":88:205   */\n    tag_119:\n        /* \"#utility.yul\":197:198   */\n      0x00\n        /* \"#utility.yul\":194:195   */\n      0x00\n        /* \"#utility.yul\":187:199   */\n      revert\n        /* \"#utility.yul\":334:411   */\n    tag_121:\n        /* \"#utility.yul\":371:378   */\n      0x00\n        /* \"#utility.yul\":400:405   */\n      dup2\n        /* \"#utility.yul\":389:405   */\n      swap1\n      pop\n        /* \"#utility.yul\":334:411   */\n      swap2\n      swap1\n      pop\n      jump\t// out\n        /* \"#utility.yul\":417:539   */\n    tag_122:\n        /* \"#utility.yul\":490:514   */\n      tag_162\n        /* \"#utility.yul\":508:513   */\n      dup2\n        /* \"#utility.yul\":490:514   */\n      tag_121\n      jump\t// in\n    tag_162:\n        /* \"#utility.yul\":483:488   */\n      dup2\n        /* \"#utility.yul\":480:515   */\n      eq\n        /* \"#utility.yul\":470:533   */\n      tag_163\n      jumpi\n        /* \"#utility.yul\":529:530   */\n      0x00\n        /* \"#utility.yul\":526:527   */\n      0x00\n        /* \"#utility.yul\":519:531   */\n      revert\n        /* \"#utility.yul\":470:533   */\n    tag_163:\n        /* \"#utility.yul\":417:539   */\n      pop\n      jump\t// out\n        /* \"#utility.yul\":545:684   */\n    tag_123:\n        /* \"#utility.yul\":591:596   */\n      0x00\n        /* \"#utility.yul\":629:635   */\n      dup2\n        /* \"#utility.yul\":616:636   */\n      calldataload\n        /* \"#utility.yul\":607:636   */\n      swap1\n      pop\n        /* \"#utility.yul\":645:678   */\n      tag_165\n        /* \"#utility.yul\":672:677   */\n      dup2\n        /* \"#utility.yul\":645:678   */\n      tag_122\n      jump\t// in\n    tag_165:\n        /* \"#utility.yul\":545:684   */\n      swap3\n      swap2\n      pop\n      pop\n      jump\t// out\n        /* \"#utility.yul\":690:1164   */\n    tag_14:\n        /* \"#utility.yul\":758:764   */\n      0x00\n        /* \"#utility.yul\":766:772   */\n      0x00\n        /* \"#utility.yul\":815:817   */\n      0x40\n        /* \"#utility.yul\":803:812   */\n      dup4\n        /* \"#utility.yul\":794:801   */\n      dup6\n        /* \"#utility.yul\":790:813   */\n      sub\n        /* \"#utility.yul\":786:818   */\n      slt\n        /* \"#utility.yul\":783:902   */\n      iszero\n      tag_167\n      jumpi\n        /* \"#utility.yul\":821:900   */\n      tag_168\n      tag_119\n      jump\t// in\n    tag_168:\n        /* \"#utility.yul\":783:902   */\n    tag_167:\n        /* \"#utility.yul\":941:942   */\n      0x00\n        /* \"#utility.yul\":966:1019   */\n      tag_169\n        /* \"#utility.yul\":1011:1018   */\n      dup6\n        /* \"#utility.yul\":1002:1008   */\n      dup3\n        /* \"#utility.yul\":991:1000   */\n      dup7\n        /* \"#utility.yul\":987:1009   */\n      add\n        /* \"#utility.yul\":966:1019   */\n      tag_123\n      jump\t// in\n    tag_169:\n        /* \"#utility.yul\":956:1019   */\n      swap3\n      pop\n        /* \"#utility.yul\":912:1029   */\n      pop\n        /* \"#utility.yul\":1068:1070   */\n      0x20\n        /* \"#utility.yul\":1094:1147   */\n      tag_170\n        /* \"#utility.yul\":1139:1146   */\n      dup6\n        /* \"#utility.yul\":1130:1136   */\n      dup3\n        /* \"#utility.yul\":1119:1128   */\n      dup7\n        /* \"#utility.yul\":1115:1137   */\n      add\n        /* \"#utility.yul\":1094:1147   */\n      tag_123\n      jump\t// in\n    tag_170:\n        /* \"#utility.yul\":1084:1147   */\n      swap2\n      pop\n        /* \"#utility.yul\":1039:1157   */\n      pop\n        /* \"#utility.yul\":690:1164   */\n      swap3\n      pop\n      swap3\n      swap1\n      pop\n      jump\t// out\n        /* \"#utility.yul\":1170:1296   */\n    tag_124:\n        /* \"#utility.yul\":1207:1214   */\n      0x00\n        /* \"#utility.yul\":1247:1289   */\n      0xffffffffffffffffffffffffffffffffffffffff\n        /* \"#utility.yul\":1240:1245   */\n      dup3\n        /* \"#utility.yul\":1236:1290   */\n      and\n        /* \"#utility.yul\":1225:1290   */\n      swap1\n      pop\n        /* \"#utility.yul\":1170:1296   */\n      swap2\n      swap1\n      pop\n      jump\t// out\n        /* \"#utility.yul\":1302:1398   */\n    tag_125:\n        /* \"#utility.yul\":1339:1346   */\n      0x00\n        /* \"#utility.yul\":1368:1392   */\n      tag_173\n        /* \"#utility.yul\":1386:1391   */\n      dup3\n        /* \"#utility.yul\":1368:1392   */\n      tag_124\n      jump\t// in\n    tag_173:\n        /* \"#utility.yul\":1357:1392   */\n      swap1\n      pop\n        /* \"#utility.yul\":1302:1398   */\n      swap2\n      swap1\n      pop\n      jump\t// out\n        /* \"#utility.yul\":1404:1526   */\n    tag_126:\n        /* \"#utility.yul\":1477:1501   */\n      tag_175\n        /* \"#utility.yul\":1495:1500   */\n      dup2\n        /* \"#utility.yul\":1477:1501   */\n      tag_125\n      jump\t// in\n    tag_175:\n        /* \"#utility.yul\":1470:1475   */\n      dup2\n        /* \"#utility.yul\":1467:1502   */\n      eq\n        /* \"#utility.yul\":1457:1520   */\n      tag_176\n      jumpi\n        /* \"#utility.yul\":1516:1517   */\n      0x00\n        /* \"#utility.yul\":1513:1514   */\n      0x00\n        /* \"#utility.yul\":1506:1518   */\n      revert\n        /* \"#utility.yul\":1457:1520   */\n    tag_176:\n        /* \"#utility.yul\":1404:1526   */\n      pop\n      jump\t// out\n        /* \"#utility.yul\":1532:1671   */\n    tag_127:\n        /* \"#utility.yul\":1578:1583   */\n      0x00\n        /* \"#utility.yul\":1616:1622   */\n      dup2\n        /* \"#utility.yul\":1603:1623   */\n      calldataload\n        /* \"#utility.yul\":1594:1623   */\n      swap1\n      pop\n        /* \"#utility.yul\":1632:1665   */\n      tag_178\n        /* \"#utility.yul\":1659:1664   */\n      dup2\n        /* \"#utility.yul\":1632:1665   */\n      tag_126\n      jump\t// in\n    tag_178:\n        /* \"#utility.yul\":1532:1671   */\n      swap3\n      swap2\n      pop\n      pop\n      jump\t// out\n        /* \"#utility.yul\":1677:2006   */\n    tag_22:\n        /* \"#utility.yul\":1736:1742   */\n      0x00\n        /* \"#utility.yul\":1785:1787   */\n      0x20\n        /* \"#utility.yul\":1773:1782   */\n      dup3\n        /* \"#utility.yul\":1764:1771   */\n      dup5\n        /* \"#utility.yul\":1760:1783   */\n      sub\n        /* \"#utility.yul\":1756:1788   */\n      slt\n        /* \"#utility.yul\":1753:1872   */\n      iszero\n      tag_180\n      jumpi\n        /* \"#utility.yul\":1791:1870   */\n      tag_181\n      tag_119\n      jump\t// in\n    tag_181:\n        /* \"#utility.yul\":1753:1872   */\n    tag_180:\n        /* \"#utility.yul\":1911:1912   */\n      0x00\n        /* \"#utility.yul\":1936:1989   */\n      tag_182\n        /* \"#utility.yul\":1981:1988   */\n      dup5\n        /* \"#utility.yul\":1972:1978   */\n      dup3\n        /* \"#utility.yul\":1961:1970   */\n      dup6\n        /* \"#utility.yul\":1957:1979   */\n      add\n        /* \"#utility.yul\":1936:1989   */\n      tag_127\n      jump\t// in\n    tag_182:\n        /* \"#utility.yul\":1926:1989   */\n      swap2\n      pop\n        /* \"#utility.yul\":1882:1999   */\n      pop\n        /* \"#utility.yul\":1677:2006   */\n      swap3\n      swap2\n      pop\n      pop\n      jump\t// out\n        /* \"#utility.yul\":2012:2130   */\n    tag_128:\n        /* \"#utility.yul\":2099:2123   */\n      tag_184\n        /* \"#utility.yul\":2117:2122   */\n      dup2\n        /* \"#utility.yul\":2099:2123   */\n      tag_121\n      jump\t// in\n    tag_184:\n        /* \"#utility.yul\":2094:2097   */\n      dup3\n        /* \"#utility.yul\":2087:2124   */\n      mstore\n        /* \"#utility.yul\":2012:2130   */\n      pop\n      pop\n      jump\t// out\n        /* \"#utility.yul\":2136:2358   */\n    tag_25:\n        /* \"#utility.yul\":2229:2233   */\n      0x00\n        /* \"#utility.yul\":2267:2269   */\n      0x20\n        /* \"#utility.yul\":2256:2265   */\n      dup3\n        /* \"#utility.yul\":2252:2270   */\n      add\n        /* \"#utility.yul\":2244:2270   */\n      swap1\n      pop\n        /* \"#utility.yul\":2280:2351   */\n      tag_186\n        /* \"#utility.yul\":2348:2349   */\n      0x00\n        /* \"#utility.yul\":2337:2346   */\n      dup4\n        /* \"#utility.yul\":2333:2350   */\n      add\n        /* \"#utility.yul\":2324:2330   */\n      dup5\n        /* \"#utility.yul\":2280:2351   */\n      tag_128\n      jump\t// in\n    tag_186:\n        /* \"#utility.yul\":2136:2358   */\n      swap3\n      swap2\n      pop\n      pop\n      jump\t// out\n        /* \"#utility.yul\":2364:2468   */\n    tag_129:\n        /* \"#utility.yul\":2429:2435   */\n      0x00\n        /* \"#utility.yul\":2457:2461   */\n      0x03\n        /* \"#utility.yul\":2447:2461   */\n      swap1\n      pop\n        /* \"#utility.yul\":2364:2468   */\n      swap2\n      swap1\n      pop\n      jump\t// out\n        /* \"#utility.yul\":2474:2617   */\n    tag_130:\n        /* \"#utility.yul\":2571:2582   */\n      0x00\n        /* \"#utility.yul\":2608:2611   */\n      dup2\n        /* \"#utility.yul\":2593:2611   */\n      swap1\n      pop\n        /* \"#utility.yul\":2474:2617   */\n      swap3\n      swap2\n      pop\n      pop\n      jump\t// out\n        /* \"#utility.yul\":2623:2721   */\n    tag_131:\n        /* \"#utility.yul\":2688:2692   */\n      0x00\n        /* \"#utility.yul\":2711:2714   */\n      dup2\n        /* \"#utility.yul\":2703:2714   */\n      swap1\n      pop\n        /* \"#utility.yul\":2623:2721   */\n      swap2\n      swap1\n      pop\n      jump\t// out\n        /* \"#utility.yul\":2727:2835   */\n    tag_132:\n        /* \"#utility.yul\":2804:2828   */\n      tag_191\n        /* \"#utility.yul\":2822:2827   */\n      dup2\n        /* \"#utility.yul\":2804:2828   */\n      tag_125\n      jump\t// in\n    tag_191:\n        /* \"#utility.yul\":2799:2802   */\n      dup3\n        /* \"#utility.yul\":2792:2829   */\n      mstore\n        /* \"#utility.yul\":2727:2835   */\n      pop\n      pop\n      jump\t// out\n        /* \"#utility.yul\":2841:3020   */\n    tag_133:\n        /* \"#utility.yul\":2910:2920   */\n      0x00\n        /* \"#utility.yul\":2931:2977   */\n      tag_193\n        /* \"#utility.yul\":2973:2976   */\n      dup4\n        /* \"#utility.yul\":2965:2971   */\n      dup4\n        /* \"#utility.yul\":2931:2977   */\n      tag_132\n      jump\t// in\n    tag_193:\n        /* \"#utility.yul\":3009:3013   */\n      0x20\n        /* \"#utility.yul\":3004:3007   */\n      dup4\n        /* \"#utility.yul\":3000:3014   */\n      add\n        /* \"#utility.yul\":2986:3014   */\n      swap1\n      pop\n        /* \"#utility.yul\":2841:3020   */\n      swap3\n      swap2\n      pop\n      pop\n      jump\t// out\n        /* \"#utility.yul\":3026:3137   */\n    tag_134:\n        /* \"#utility.yul\":3094:3098   */\n      0x00\n        /* \"#utility.yul\":3126:3130   */\n      0x20\n        /* \"#utility.yul\":3121:3124   */\n      dup3\n        /* \"#utility.yul\":3117:3131   */\n      add\n        /* \"#utility.yul\":3109:3131   */\n      swap1\n      pop\n        /* \"#utility.yul\":3026:3137   */\n      swap2\n      swap1\n      pop\n      jump\t// out\n        /* \"#utility.yul\":3175:3869   */\n    tag_135:\n        /* \"#utility.yul\":3311:3363   */\n      tag_196\n        /* \"#utility.yul\":3357:3362   */\n      dup2\n        /* \"#utility.yul\":3311:3363   */\n      tag_129\n      jump\t// in\n    tag_196:\n        /* \"#utility.yul\":3379:3463   */\n      tag_197\n        /* \"#utility.yul\":3456:3462   */\n      dup2\n        /* \"#utility.yul\":3451:3454   */\n      dup5\n        /* \"#utility.yul\":3379:3463   */\n      tag_130\n      jump\t// in\n    tag_197:\n        /* \"#utility.yul\":3372:3463   */\n      swap3\n      pop\n        /* \"#utility.yul\":3487:3541   */\n      tag_198\n        /* \"#utility.yul\":3535:3540   */\n      dup3\n        /* \"#utility.yul\":3487:3541   */\n      tag_131\n      jump\t// in\n    tag_198:\n        /* \"#utility.yul\":3564:3571   */\n      dup1\n        /* \"#utility.yul\":3595:3596   */\n      0x00\n        /* \"#utility.yul\":3580:3862   */\n    tag_199:\n        /* \"#utility.yul\":3605:3611   */\n      dup4\n        /* \"#utility.yul\":3602:3603   */\n      dup2\n        /* \"#utility.yul\":3599:3612   */\n      lt\n        /* \"#utility.yul\":3580:3862   */\n      iszero\n      tag_201\n      jumpi\n        /* \"#utility.yul\":3681:3687   */\n      dup2\n        /* \"#utility.yul\":3675:3688   */\n      mload\n        /* \"#utility.yul\":3708:3771   */\n      tag_202\n        /* \"#utility.yul\":3767:3770   */\n      dup8\n        /* \"#utility.yul\":3752:3765   */\n      dup3\n        /* \"#utility.yul\":3708:3771   */\n      tag_133\n      jump\t// in\n    tag_202:\n        /* \"#utility.yul\":3701:3771   */\n      swap7\n      pop\n        /* \"#utility.yul\":3794:3852   */\n      tag_203\n        /* \"#utility.yul\":3845:3851   */\n      dup4\n        /* \"#utility.yul\":3794:3852   */\n      tag_134\n      jump\t// in\n    tag_203:\n        /* \"#utility.yul\":3784:3852   */\n      swap3\n      pop\n        /* \"#utility.yul\":3640:3862   */\n      pop\n        /* \"#utility.yul\":3627:3628   */\n      0x01\n        /* \"#utility.yul\":3624:3625   */\n      dup2\n        /* \"#utility.yul\":3620:3629   */\n      add\n        /* \"#utility.yul\":3615:3629   */\n      swap1\n      pop\n        /* \"#utility.yul\":3580:3862   */\n      jump(tag_199)\n    tag_201:\n        /* \"#utility.yul\":3584:3598   */\n      pop\n        /* \"#utility.yul\":3287:3869   */\n      pop\n      pop\n      pop\n        /* \"#utility.yul\":3175:3869   */\n      pop\n      pop\n      jump\t// out\n        /* \"#utility.yul\":3875:3979   */\n    tag_136:\n        /* \"#utility.yul\":3940:3946   */\n      0x00\n        /* \"#utility.yul\":3968:3972   */\n      0x03\n        /* \"#utility.yul\":3958:3972   */\n      swap1\n      pop\n        /* \"#utility.yul\":3875:3979   */\n      swap2\n      swap1\n      pop\n      jump\t// out\n        /* \"#utility.yul\":3985:4128   */\n    tag_137:\n        /* \"#utility.yul\":4082:4093   */\n      0x00\n        /* \"#utility.yul\":4119:4122   */\n      dup2\n        /* \"#utility.yul\":4104:4122   */\n      swap1\n      pop\n        /* \"#utility.yul\":3985:4128   */\n      swap3\n      swap2\n      pop\n      pop\n      jump\t// out\n        /* \"#utility.yul\":4134:4232   */\n    tag_138:\n        /* \"#utility.yul\":4199:4203   */\n      0x00\n        /* \"#utility.yul\":4222:4225   */\n      dup2\n        /* \"#utility.yul\":4214:4225   */\n      swap1\n      pop\n        /* \"#utility.yul\":4134:4232   */\n      swap2\n      swap1\n      pop\n      jump\t// out\n        /* \"#utility.yul\":4238:4346   */\n    tag_139:\n        /* \"#utility.yul\":4315:4339   */\n      tag_208\n        /* \"#utility.yul\":4333:4338   */\n      dup2\n        /* \"#utility.yul\":4315:4339   */\n      tag_121\n      jump\t// in\n    tag_208:\n        /* \"#utility.yul\":4310:4313   */\n      dup3\n        /* \"#utility.yul\":4303:4340   */\n      mstore\n        /* \"#utility.yul\":4238:4346   */\n      pop\n      pop\n      jump\t// out\n        /* \"#utility.yul\":4352:4531   */\n    tag_140:\n        /* \"#utility.yul\":4421:4431   */\n      0x00\n        /* \"#utility.yul\":4442:4488   */\n      tag_210\n        /* \"#utility.yul\":4484:4487   */\n      dup4\n        /* \"#utility.yul\":4476:4482   */\n      dup4\n        /* \"#utility.yul\":4442:4488   */\n      tag_139\n      jump\t// in\n    tag_210:\n        /* \"#utility.yul\":4520:4524   */\n      0x20\n        /* \"#utility.yul\":4515:4518   */\n      dup4\n        /* \"#utility.yul\":4511:4525   */\n      add\n        /* \"#utility.yul\":4497:4525   */\n      swap1\n      pop\n        /* \"#utility.yul\":4352:4531   */\n      swap3\n      swap2\n      pop\n      pop\n      jump\t// out\n        /* \"#utility.yul\":4537:4648   */\n    tag_141:\n        /* \"#utility.yul\":4605:4609   */\n      0x00\n        /* \"#utility.yul\":4637:4641   */\n      0x20\n        /* \"#utility.yul\":4632:4635   */\n      dup3\n        /* \"#utility.yul\":4628:4642   */\n      add\n        /* \"#utility.yul\":4620:4642   */\n      swap1\n      pop\n        /* \"#utility.yul\":4537:4648   */\n      swap2\n      swap1\n      pop\n      jump\t// out\n        /* \"#utility.yul\":4686:5380   */\n    tag_142:\n        /* \"#utility.yul\":4822:4874   */\n      tag_213\n        /* \"#utility.yul\":4868:4873   */\n      dup2\n        /* \"#utility.yul\":4822:4874   */\n      tag_136\n      jump\t// in\n    tag_213:\n        /* \"#utility.yul\":4890:4974   */\n      tag_214\n        /* \"#utility.yul\":4967:4973   */\n      dup2\n        /* \"#utility.yul\":4962:4965   */\n      dup5\n        /* \"#utility.yul\":4890:4974   */\n      tag_137\n      jump\t// in\n    tag_214:\n        /* \"#utility.yul\":4883:4974   */\n      swap3\n      pop\n        /* \"#utility.yul\":4998:5052   */\n      tag_215\n        /* \"#utility.yul\":5046:5051   */\n      dup3\n        /* \"#utility.yul\":4998:5052   */\n      tag_138\n      jump\t// in\n    tag_215:\n        /* \"#utility.yul\":5075:5082   */\n      dup1\n        /* \"#utility.yul\":5106:5107   */\n      0x00\n        /* \"#utility.yul\":5091:5373   */\n    tag_216:\n        /* \"#utility.yul\":5116:5122   */\n      dup4\n        /* \"#utility.yul\":5113:5114   */\n      dup2\n        /* \"#utility.yul\":5110:5123   */\n      lt\n        /* \"#utility.yul\":5091:5373   */\n      iszero\n      tag_218\n      jumpi\n        /* \"#utility.yul\":5192:5198   */\n      dup2\n        /* \"#utility.yul\":5186:5199   */\n      mload\n        /* \"#utility.yul\":5219:5282   */\n      tag_219\n        /* \"#utility.yul\":5278:5281   */\n      dup8\n        /* \"#utility.yul\":5263:5276   */\n      dup3\n        /* \"#utility.yul\":5219:5282   */\n      tag_140\n      jump\t// in\n    tag_219:\n        /* \"#utility.yul\":5212:5282   */\n      swap7\n      pop\n        /* \"#utility.yul\":5305:5363   */\n      tag_220\n        /* \"#utility.yul\":5356:5362   */\n      dup4\n        /* \"#utility.yul\":5305:5363   */\n      tag_141\n      jump\t// in\n    tag_220:\n        /* \"#utility.yul\":5295:5363   */\n      swap3\n      pop\n        /* \"#utility.yul\":5151:5373   */\n      pop\n        /* \"#utility.yul\":5138:5139   */\n      0x01\n        /* \"#utility.yul\":5135:5136   */\n      dup2\n        /* \"#utility.yul\":5131:5140   */\n      add\n        /* \"#utility.yul\":5126:5140   */\n      swap1\n      pop\n        /* \"#utility.yul\":5091:5373   */\n      jump(tag_216)\n    tag_218:\n        /* \"#utility.yul\":5095:5109   */\n      pop\n        /* \"#utility.yul\":4798:5380   */\n      pop\n      pop\n      pop\n        /* \"#utility.yul\":4686:5380   */\n      pop\n      pop\n      jump\t// out\n        /* \"#utility.yul\":5386:5903   */\n    tag_39:\n        /* \"#utility.yul\":5599:5603   */\n      0x00\n        /* \"#utility.yul\":5637:5640   */\n      0xc0\n        /* \"#utility.yul\":5626:5635   */\n      dup3\n        /* \"#utility.yul\":5622:5641   */\n      add\n        /* \"#utility.yul\":5614:5641   */\n      swap1\n      pop\n        /* \"#utility.yul\":5651:5768   */\n      tag_222\n        /* \"#utility.yul\":5765:5766   */\n      0x00\n        /* \"#utility.yul\":5754:5763   */\n      dup4\n        /* \"#utility.yul\":5750:5767   */\n      add\n        /* \"#utility.yul\":5741:5747   */\n      dup6\n        /* \"#utility.yul\":5651:5768   */\n      tag_135\n      jump\t// in\n    tag_222:\n        /* \"#utility.yul\":5778:5896   */\n      tag_223\n        /* \"#utility.yul\":5892:5894   */\n      0x60\n        /* \"#utility.yul\":5881:5890   */\n      dup4\n        /* \"#utility.yul\":5877:5895   */\n      add\n        /* \"#utility.yul\":5868:5874   */\n      dup5\n        /* \"#utility.yul\":5778:5896   */\n      tag_142\n      jump\t// in\n    tag_223:\n        /* \"#utility.yul\":5386:5903   */\n      swap4\n      swap3\n      pop\n      pop\n      pop\n      jump\t// out\n        /* \"#utility.yul\":5909:6078   */\n    tag_143:\n        /* \"#utility.yul\":5993:6004   */\n      0x00\n        /* \"#utility.yul\":6027:6033   */\n      dup3\n        /* \"#utility.yul\":6022:6025   */\n      dup3\n        /* \"#utility.yul\":6015:6034   */\n      mstore\n        /* \"#utility.yul\":6067:6071   */\n      0x20\n        /* \"#utility.yul\":6062:6065   */\n      dup3\n        /* \"#utility.yul\":6058:6072   */\n      add\n        /* \"#utility.yul\":6043:6072   */\n      swap1\n      pop\n        /* \"#utility.yul\":5909:6078   */\n      swap3\n      swap2\n      pop\n      pop\n      jump\t// out\n        /* \"#utility.yul\":6084:6304   */\n    tag_144:\n        /* \"#utility.yul\":6224:6258   */\n      0x4f6e6c79206f776e65722063616e2063616c6c20746869732066756e6374696f\n        /* \"#utility.yul\":6220:6221   */\n      0x00\n        /* \"#utility.yul\":6212:6218   */\n      dup3\n        /* \"#utility.yul\":6208:6222   */\n      add\n        /* \"#utility.yul\":6201:6259   */\n      mstore\n        /* \"#utility.yul\":6293:6296   */\n      0x6e00000000000000000000000000000000000000000000000000000000000000\n        /* \"#utility.yul\":6288:6290   */\n      0x20\n        /* \"#utility.yul\":6280:6286   */\n      dup3\n        /* \"#utility.yul\":6276:6291   */\n      add\n        /* \"#utility.yul\":6269:6297   */\n      mstore\n        /* \"#utility.yul\":6084:6304   */\n      pop\n      jump\t// out\n        /* \"#utility.yul\":6310:6676   */\n    tag_145:\n        /* \"#utility.yul\":6452:6455   */\n      0x00\n        /* \"#utility.yul\":6473:6540   */\n      tag_227\n        /* \"#utility.yul\":6537:6539   */\n      0x21\n        /* \"#utility.yul\":6532:6535   */\n      dup4\n        /* \"#utility.yul\":6473:6540   */\n      tag_143\n      jump\t// in\n    tag_227:\n        /* \"#utility.yul\":6466:6540   */\n      swap2\n      pop\n        /* \"#utility.yul\":6549:6642   */\n      tag_228\n        /* \"#utility.yul\":6638:6641   */\n      dup3\n        /* \"#utility.yul\":6549:6642   */\n      tag_144\n      jump\t// in\n    tag_228:\n        /* \"#utility.yul\":6667:6669   */\n      0x40\n        /* \"#utility.yul\":6662:6665   */\n      dup3\n        /* \"#utility.yul\":6658:6670   */\n      add\n        /* \"#utility.yul\":6651:6670   */\n      swap1\n      pop\n        /* \"#utility.yul\":6310:6676   */\n      swap2\n      swap1\n      pop\n      jump\t// out\n        /* \"#utility.yul\":6682:7101   */\n    tag_49:\n        /* \"#utility.yul\":6848:6852   */\n      0x00\n        /* \"#utility.yul\":6886:6888   */\n      0x20\n        /* \"#utility.yul\":6875:6884   */\n      dup3\n        /* \"#utility.yul\":6871:6889   */\n      add\n        /* \"#utility.yul\":6863:6889   */\n      swap1\n      pop\n        /* \"#utility.yul\":6935:6944   */\n      dup2\n        /* \"#utility.yul\":6929:6933   */\n      dup2\n        /* \"#utility.yul\":6925:6945   */\n      sub\n        /* \"#utility.yul\":6921:6922   */\n      0x00\n        /* \"#utility.yul\":6910:6919   */\n      dup4\n        /* \"#utility.yul\":6906:6923   */\n      add\n        /* \"#utility.yul\":6899:6946   */\n      mstore\n        /* \"#utility.yul\":6963:7094   */\n      tag_230\n        /* \"#utility.yul\":7089:7093   */\n      dup2\n        /* \"#utility.yul\":6963:7094   */\n      tag_145\n      jump\t// in\n    tag_230:\n        /* \"#utility.yul\":6955:7094   */\n      swap1\n      pop\n        /* \"#utility.yul\":6682:7101   */\n      swap2\n      swap1\n      pop\n      jump\t// out\n        /* \"#utility.yul\":7107:7328   */\n    tag_146:\n        /* \"#utility.yul\":7247:7281   */\n      0x53746172742074696d65206d757374206265206265666f726520656e64207469\n        /* \"#utility.yul\":7243:7244   */\n      0x00\n        /* \"#utility.yul\":7235:7241   */\n      dup3\n        /* \"#utility.yul\":7231:7245   */\n      add\n        /* \"#utility.yul\":7224:7282   */\n      mstore\n        /* \"#utility.yul\":7316:7320   */\n      0x6d65000000000000000000000000000000000000000000000000000000000000\n        /* \"#utility.yul\":7311:7313   */\n      0x20\n        /* \"#utility.yul\":7303:7309   */\n      dup3\n        /* \"#utility.yul\":7299:7314   */\n      add\n        /* \"#utility.yul\":7292:7321   */\n      mstore\n        /* \"#utility.yul\":7107:7328   */\n      pop\n      jump\t// out\n        /* \"#utility.yul\":7334:7700   */\n    tag_147:\n        /* \"#utility.yul\":7476:7479   */\n      0x00\n        /* \"#utility.yul\":7497:7564   */\n      tag_233\n        /* \"#utility.yul\":7561:7563   */\n      0x22\n        /* \"#utility.yul\":7556:7559   */\n      dup4\n        /* \"#utility.yul\":7497:7564   */\n      tag_143\n      jump\t// in\n    tag_233:\n        /* \"#utility.yul\":7490:7564   */\n      swap2\n      pop\n        /* \"#utility.yul\":7573:7666   */\n      tag_234\n        /* \"#utility.yul\":7662:7665   */\n      dup3\n        /* \"#utility.yul\":7573:7666   */\n      tag_146\n      jump\t// in\n    tag_234:\n        /* \"#utility.yul\":7691:7693   */\n      0x40\n        /* \"#utility.yul\":7686:7689   */\n      dup3\n        /* \"#utility.yul\":7682:7694   */\n      add\n        /* \"#utility.yul\":7675:7694   */\n      swap1\n      pop\n        /* \"#utility.yul\":7334:7700   */\n      swap2\n      swap1\n      pop\n      jump\t// out\n        /* \"#utility.yul\":7706:8125   */\n    tag_53:\n        /* \"#utility.yul\":7872:7876   */\n      0x00\n        /* \"#utility.yul\":7910:7912   */\n      0x20\n        /* \"#utility.yul\":7899:7908   */\n      dup3\n        /* \"#utility.yul\":7895:7913   */\n      add\n        /* \"#utility.yul\":7887:7913   */\n      swap1\n      pop\n        /* \"#utility.yul\":7959:7968   */\n      dup2\n        /* \"#utility.yul\":7953:7957   */\n      dup2\n        /* \"#utility.yul\":7949:7969   */\n      sub\n        /* \"#utility.yul\":7945:7946   */\n      0x00\n        /* \"#utility.yul\":7934:7943   */\n      dup4\n        /* \"#utility.yul\":7930:7947   */\n      add\n        /* \"#utility.yul\":7923:7970   */\n      mstore\n        /* \"#utility.yul\":7987:8118   */\n      tag_236\n        /* \"#utility.yul\":8113:8117   */\n      dup2\n        /* \"#utility.yul\":7987:8118   */\n      tag_147\n      jump\t// in\n    tag_236:\n        /* \"#utility.yul\":7979:8118   */\n      swap1\n      pop\n        /* \"#utility.yul\":7706:8125   */\n      swap2\n      swap1\n      pop\n      jump\t// out\n        /* \"#utility.yul\":8131:8463   */\n    tag_55:\n        /* \"#utility.yul\":8252:8256   */\n      0x00\n        /* \"#utility.yul\":8290:8292   */\n      0x40\n        /* \"#utility.yul\":8279:8288   */\n      dup3\n        /* \"#utility.yul\":8275:8293   */\n      add\n        /* \"#utility.yul\":8267:8293   */\n      swap1\n      pop\n        /* \"#utility.yul\":8303:8374   */\n      tag_238\n        /* \"#utility.yul\":8371:8372   */\n      0x00\n        /* \"#utility.yul\":8360:8369   */\n      dup4\n        /* \"#utility.yul\":8356:8373   */\n      add\n        /* \"#utility.yul\":8347:8353   */\n      dup6\n        /* \"#utility.yul\":8303:8374   */\n      tag_128\n      jump\t// in\n    tag_238:\n        /* \"#utility.yul\":8384:8456   */\n      tag_239\n        /* \"#utility.yul\":8452:8454   */\n      0x20\n        /* \"#utility.yul\":8441:8450   */\n      dup4\n        /* \"#utility.yul\":8437:8455   */\n      add\n        /* \"#utility.yul\":8428:8434   */\n      dup5\n        /* \"#utility.yul\":8384:8456   */\n      tag_128\n      jump\t// in\n    tag_239:\n        /* \"#utility.yul\":8131:8463   */\n      swap4\n      swap3\n      pop\n      pop\n      pop\n      jump\t// out\n        /* \"#utility.yul\":8469:8616   */\n    tag_148:\n        /* \"#utility.yul\":8570:8581   */\n      0x00\n        /* \"#utility.yul\":8607:8610   */\n      dup2\n        /* \"#utility.yul\":8592:8610   */\n      swap1\n      pop\n        /* \"#utility.yul\":8469:8616   */\n      swap3\n      swap2\n      pop\n      pop\n      jump\t// out\n        /* \"#utility.yul\":8622:8736   */\n    tag_149:\n      pop\n      jump\t// out\n        /* \"#utility.yul\":8742:9140   */\n    tag_150:\n        /* \"#utility.yul\":8901:8904   */\n      0x00\n        /* \"#utility.yul\":8922:9005   */\n      tag_243\n        /* \"#utility.yul\":9003:9004   */\n      0x00\n        /* \"#utility.yul\":8998:9001   */\n      dup4\n        /* \"#utility.yul\":8922:9005   */\n      tag_148\n      jump\t// in\n    tag_243:\n        /* \"#utility.yul\":8915:9005   */\n      swap2\n      pop\n        /* \"#utility.yul\":9014:9107   */\n      tag_244\n        /* \"#utility.yul\":9103:9106   */\n      dup3\n        /* \"#utility.yul\":9014:9107   */\n      tag_149\n      jump\t// in\n    tag_244:\n        /* \"#utility.yul\":9132:9133   */\n      0x00\n        /* \"#utility.yul\":9127:9130   */\n      dup3\n        /* \"#utility.yul\":9123:9134   */\n      add\n        /* \"#utility.yul\":9116:9134   */\n      swap1\n      pop\n        /* \"#utility.yul\":8742:9140   */\n      swap2\n      swap1\n      pop\n      jump\t// out\n        /* \"#utility.yul\":9146:9525   */\n    tag_61:\n        /* \"#utility.yul\":9330:9333   */\n      0x00\n        /* \"#utility.yul\":9352:9499   */\n      tag_246\n        /* \"#utility.yul\":9495:9498   */\n      dup3\n        /* \"#utility.yul\":9352:9499   */\n      tag_150\n      jump\t// in\n    tag_246:\n        /* \"#utility.yul\":9345:9499   */\n      swap2\n      pop\n        /* \"#utility.yul\":9516:9519   */\n      dup2\n        /* \"#utility.yul\":9509:9519   */\n      swap1\n      pop\n        /* \"#utility.yul\":9146:9525   */\n      swap2\n      swap1\n      pop\n      jump\t// out\n        /* \"#utility.yul\":9531:9698   */\n    tag_151:\n        /* \"#utility.yul\":9671:9690   */\n      0x5769746864726177616c206661696c6564000000000000000000000000000000\n        /* \"#utility.yul\":9667:9668   */\n      0x00\n        /* \"#utility.yul\":9659:9665   */\n      dup3\n        /* \"#utility.yul\":9655:9669   */\n      add\n        /* \"#utility.yul\":9648:9691   */\n      mstore\n        /* \"#utility.yul\":9531:9698   */\n      pop\n      jump\t// out\n        /* \"#utility.yul\":9704:10070   */\n    tag_152:\n        /* \"#utility.yul\":9846:9849   */\n      0x00\n        /* \"#utility.yul\":9867:9934   */\n      tag_249\n        /* \"#utility.yul\":9931:9933   */\n      0x11\n        /* \"#utility.yul\":9926:9929   */\n      dup4\n        /* \"#utility.yul\":9867:9934   */\n      tag_143\n      jump\t// in\n    tag_249:\n        /* \"#utility.yul\":9860:9934   */\n      swap2\n      pop\n        /* \"#utility.yul\":9943:10036   */\n      tag_250\n        /* \"#utility.yul\":10032:10035   */\n      dup3\n        /* \"#utility.yul\":9943:10036   */\n      tag_151\n      jump\t// in\n    tag_250:\n        /* \"#utility.yul\":10061:10063   */\n      0x20\n        /* \"#utility.yul\":10056:10059   */\n      dup3\n        /* \"#utility.yul\":10052:10064   */\n      add\n        /* \"#utility.yul\":10045:10064   */\n      swap1\n      pop\n        /* \"#utility.yul\":9704:10070   */\n      swap2\n      swap1\n      pop\n      jump\t// out\n        /* \"#utility.yul\":10076:10495   */\n    tag_67:\n        /* \"#utility.yul\":10242:10246   */\n      0x00\n        /* \"#utility.yul\":10280:10282   */\n      0x20\n        /* \"#utility.yul\":10269:10278   */\n      dup3\n        /* \"#utility.yul\":10265:10283   */\n      add\n        /* \"#utility.yul\":10257:10283   */\n      swap1\n      pop\n        /* \"#utility.yul\":10329:10338   */\n      dup2\n        /* \"#utility.yul\":10323:10327   */\n      dup2\n        /* \"#utility.yul\":10319:10339   */\n      sub\n        /* \"#utility.yul\":10315:10316   */\n      0x00\n        /* \"#utility.yul\":10304:10313   */\n      dup4\n        /* \"#utility.yul\":10300:10317   */\n      add\n        /* \"#utility.yul\":10293:10340   */\n      mstore\n        /* \"#utility.yul\":10357:10488   */\n      tag_252\n        /* \"#utility.yul\":10483:10487   */\n      dup2\n        /* \"#utility.yul\":10357:10488   */\n      tag_152\n      jump\t// in\n    tag_252:\n        /* \"#utility.yul\":10349:10488   */\n      swap1\n      pop\n        /* \"#utility.yul\":10076:10495   */\n      swap2\n      swap1\n      pop\n      jump\t// out\n        /* \"#utility.yul\":10501:10681   */\n    tag_81:\n        /* \"#utility.yul\":10549:10626   */\n      0x4e487b7100000000000000000000000000000000000000000000000000000000\n        /* \"#utility.yul\":10546:10547   */\n      0x00\n        /* \"#utility.yul\":10539:10627   */\n      mstore\n        /* \"#utility.yul\":10646:10650   */\n      0x32\n        /* \"#utility.yul\":10643:10644   */\n      0x04\n        /* \"#utility.yul\":10636:10651   */\n      mstore\n        /* \"#utility.yul\":10670:10674   */\n      0x24\n        /* \"#utility.yul\":10667:10668   */\n      0x00\n        /* \"#utility.yul\":10660:10675   */\n      revert\n        /* \"#utility.yul\":10687:10867   */\n    tag_153:\n        /* \"#utility.yul\":10735:10812   */\n      0x4e487b7100000000000000000000000000000000000000000000000000000000\n        /* \"#utility.yul\":10732:10733   */\n      0x00\n        /* \"#utility.yul\":10725:10813   */\n      mstore\n        /* \"#utility.yul\":10832:10836   */\n      0x11\n        /* \"#utility.yul\":10829:10830   */\n      0x04\n        /* \"#utility.yul\":10822:10837   */\n      mstore\n        /* \"#utility.yul\":10856:10860   */\n      0x24\n        /* \"#utility.yul\":10853:10854   */\n      0x00\n        /* \"#utility.yul\":10846:10861   */\n      revert\n        /* \"#utility.yul\":10873:11067   */\n    tag_93:\n        /* \"#utility.yul\":10913:10917   */\n      0x00\n        /* \"#utility.yul\":10933:10953   */\n      tag_256\n        /* \"#utility.yul\":10951:10952   */\n      dup3\n        /* \"#utility.yul\":10933:10953   */\n      tag_121\n      jump\t// in\n    tag_256:\n        /* \"#utility.yul\":10928:10953   */\n      swap2\n      pop\n        /* \"#utility.yul\":10967:10987   */\n      tag_257\n        /* \"#utility.yul\":10985:10986   */\n      dup4\n        /* \"#utility.yul\":10967:10987   */\n      tag_121\n      jump\t// in\n    tag_257:\n        /* \"#utility.yul\":10962:10987   */\n      swap3\n      pop\n        /* \"#utility.yul\":11011:11012   */\n      dup3\n        /* \"#utility.yul\":11008:11009   */\n      dup3\n        /* \"#utility.yul\":11004:11013   */\n      sub\n        /* \"#utility.yul\":10996:11013   */\n      swap1\n      pop\n        /* \"#utility.yul\":11035:11036   */\n      dup2\n        /* \"#utility.yul\":11029:11033   */\n      dup2\n        /* \"#utility.yul\":11026:11037   */\n      gt\n        /* \"#utility.yul\":11023:11060   */\n      iszero\n      tag_258\n      jumpi\n        /* \"#utility.yul\":11040:11058   */\n      tag_259\n      tag_153\n      jump\t// in\n    tag_259:\n        /* \"#utility.yul\":11023:11060   */\n    tag_258:\n        /* \"#utility.yul\":10873:11067   */\n      swap3\n      swap2\n      pop\n      pop\n      jump\t// out\n        /* \"#utility.yul\":11073:11244   */\n    tag_104:\n        /* \"#utility.yul\":11112:11115   */\n      0x00\n        /* \"#utility.yul\":11135:11159   */\n      tag_261\n        /* \"#utility.yul\":11153:11158   */\n      dup3\n        /* \"#utility.yul\":11135:11159   */\n      tag_121\n      jump\t// in\n    tag_261:\n        /* \"#utility.yul\":11126:11159   */\n      swap2\n      pop\n        /* \"#utility.yul\":11181:11185   */\n      0x00\n        /* \"#utility.yul\":11174:11179   */\n      dup3\n        /* \"#utility.yul\":11171:11186   */\n      sub\n        /* \"#utility.yul\":11168:11209   */\n      tag_262\n      jumpi\n        /* \"#utility.yul\":11189:11207   */\n      tag_263\n      tag_153\n      jump\t// in\n    tag_263:\n        /* \"#utility.yul\":11168:11209   */\n    tag_262:\n        /* \"#utility.yul\":11236:11237   */\n      0x01\n        /* \"#utility.yul\":11229:11234   */\n      dup3\n        /* \"#utility.yul\":11225:11238   */\n      sub\n        /* \"#utility.yul\":11218:11238   */\n      swap1\n      pop\n        /* \"#utility.yul\":11073:11244   */\n      swap2\n      swap1\n      pop\n      jump\t// out\n        /* \"#utility.yul\":11250:11475   */\n    tag_154:\n        /* \"#utility.yul\":11390:11424   */\n      0x446f6e6174696f6e20616d6f756e74206d757374206265206772656174657220\n        /* \"#utility.yul\":11386:11387   */\n      0x00\n        /* \"#utility.yul\":11378:11384   */\n      dup3\n        /* \"#utility.yul\":11374:11388   */\n      add\n        /* \"#utility.yul\":11367:11425   */\n      mstore\n        /* \"#utility.yul\":11459:11467   */\n      0x7468616e20300000000000000000000000000000000000000000000000000000\n        /* \"#utility.yul\":11454:11456   */\n      0x20\n        /* \"#utility.yul\":11446:11452   */\n      dup3\n        /* \"#utility.yul\":11442:11457   */\n      add\n        /* \"#utility.yul\":11435:11468   */\n      mstore\n        /* \"#utility.yul\":11250:11475   */\n      pop\n      jump\t// out\n        /* \"#utility.yul\":11481:11847   */\n    tag_155:\n        /* \"#utility.yul\":11623:11626   */\n      0x00\n        /* \"#utility.yul\":11644:11711   */\n      tag_266\n        /* \"#utility.yul\":11708:11710   */\n      0x26\n        /* \"#utility.yul\":11703:11706   */\n      dup4\n        /* \"#utility.yul\":11644:11711   */\n      tag_143\n      jump\t// in\n    tag_266:\n        /* \"#utility.yul\":11637:11711   */\n      swap2\n      pop\n        /* \"#utility.yul\":11720:11813   */\n      tag_267\n        /* \"#utility.yul\":11809:11812   */\n      dup3\n        /* \"#utility.yul\":11720:11813   */\n      tag_154\n      jump\t// in\n    tag_267:\n        /* \"#utility.yul\":11838:11840   */\n      0x40\n        /* \"#utility.yul\":11833:11836   */\n      dup3\n        /* \"#utility.yul\":11829:11841   */\n      add\n        /* \"#utility.yul\":11822:11841   */\n      swap1\n      pop\n        /* \"#utility.yul\":11481:11847   */\n      swap2\n      swap1\n      pop\n      jump\t// out\n        /* \"#utility.yul\":11853:12272   */\n    tag_112:\n        /* \"#utility.yul\":12019:12023   */\n      0x00\n        /* \"#utility.yul\":12057:12059   */\n      0x20\n        /* \"#utility.yul\":12046:12055   */\n      dup3\n        /* \"#utility.yul\":12042:12060   */\n      add\n        /* \"#utility.yul\":12034:12060   */\n      swap1\n      pop\n        /* \"#utility.yul\":12106:12115   */\n      dup2\n        /* \"#utility.yul\":12100:12104   */\n      dup2\n        /* \"#utility.yul\":12096:12116   */\n      sub\n        /* \"#utility.yul\":12092:12093   */\n      0x00\n        /* \"#utility.yul\":12081:12090   */\n      dup4\n        /* \"#utility.yul\":12077:12094   */\n      add\n        /* \"#utility.yul\":12070:12117   */\n      mstore\n        /* \"#utility.yul\":12134:12265   */\n      tag_269\n        /* \"#utility.yul\":12260:12264   */\n      dup2\n        /* \"#utility.yul\":12134:12265   */\n      tag_155\n      jump\t// in\n    tag_269:\n        /* \"#utility.yul\":12126:12265   */\n      swap1\n      pop\n        /* \"#utility.yul\":11853:12272   */\n      swap2\n      swap1\n      pop\n      jump\t// out\n        /* \"#utility.yul\":12278:12469   */\n    tag_116:\n        /* \"#utility.yul\":12318:12321   */\n      0x00\n        /* \"#utility.yul\":12337:12357   */\n      tag_271\n        /* \"#utility.yul\":12355:12356   */\n      dup3\n        /* \"#utility.yul\":12337:12357   */\n      tag_121\n      jump\t// in\n    tag_271:\n        /* \"#utility.yul\":12332:12357   */\n      swap2\n      pop\n        /* \"#utility.yul\":12371:12391   */\n      tag_272\n        /* \"#utility.yul\":12389:12390   */\n      dup4\n        /* \"#utility.yul\":12371:12391   */\n      tag_121\n      jump\t// in\n    tag_272:\n        /* \"#utility.yul\":12366:12391   */\n      swap3\n      pop\n        /* \"#utility.yul\":12414:12415   */\n      dup3\n        /* \"#utility.yul\":12411:12412   */\n      dup3\n        /* \"#utility.yul\":12407:12416   */\n      add\n        /* \"#utility.yul\":12400:12416   */\n      swap1\n      pop\n        /* \"#utility.yul\":12435:12438   */\n      dup1\n        /* \"#utility.yul\":12432:12433   */\n      dup3\n        /* \"#utility.yul\":12429:12439   */\n      gt\n        /* \"#utility.yul\":12426:12462   */\n      iszero\n      tag_273\n      jumpi\n        /* \"#utility.yul\":12442:12460   */\n      tag_274\n      tag_153\n      jump\t// in\n    tag_274:\n        /* \"#utility.yul\":12426:12462   */\n    tag_273:\n        /* \"#utility.yul\":12278:12469   */\n      swap3\n      swap2\n      pop\n      pop\n      jump\t// out\n\n    auxdata: 0xa2646970667358221220deeac31d0ccebdba20c24ab783951979bf4df8eba24bee2102f015156742f0e664736f6c634300081e0033\n}\n",
				"bytecode": {
					"linkReferences": {},
					"object": "6080604052348015600e575f5ffd5b503360015f6101000a81548173ffffffffffffffffffffffffffffffffffffffff021916908373ffffffffffffffffffffffffffffffffffffffff160217905550610ee48061005c5f395ff3fe60806040526004361061007a575f3560e01c8063cc6cb19a1161004d578063cc6cb19a14610122578063d6387ed81461015e578063ed88c68e14610189578063f12a4a53146101935761007a565b80631d3ab0991461007e5780633ccfd60b146100a6578063410a1d32146100bc57806378331552146100f8575b5f5ffd5b348015610089575f5ffd5b506100a4600480360381019061009f91906108e1565b6101bd565b005b3480156100b1575f5ffd5b506100ba6102d9565b005b3480156100c7575f5ffd5b506100e260048036038101906100dd9190610979565b610434565b6040516100ef91906109b3565b60405180910390f35b348015610103575f5ffd5b5061010c610479565b60405161011991906109b3565b60405180910390f35b34801561012d575f5ffd5b5061014860048036038101906101439190610979565b61047f565b60405161015591906109b3565b60405180910390f35b348015610169575f5ffd5b50610172610493565b604051610180929190610b16565b60405180910390f35b6101916106d8565b005b34801561019e575f5ffd5b506101a7610860565b6040516101b491906109b3565b60405180910390f35b60015f9054906101000a900473ffffffffffffffffffffffffffffffffffffffff1673ffffffffffffffffffffffffffffffffffffffff163373ffffffffffffffffffffffffffffffffffffffff161461024c576040517f08c379a000000000000000000000000000000000000000000000000000000000815260040161024390610bbd565b60405180910390fd5b80821061028e576040517f08c379a000000000000000000000000000000000000000000000000000000000815260040161028590610c4b565b60405180910390fd5b81600381905550806004819055507feba8616b6cbcf6dd18b28ca1a9205eac87bf5bd8649c3bc96b62287a9f1afe2b82826040516102cd929190610c69565b60405180910390a15050565b60015f9054906101000a900473ffffffffffffffffffffffffffffffffffffffff1673ffffffffffffffffffffffffffffffffffffffff163373ffffffffffffffffffffffffffffffffffffffff1614610368576040517f08c379a000000000000000000000000000000000000000000000000000000000815260040161035f90610bbd565b60405180910390fd5b5f60015f9054906101000a900473ffffffffffffffffffffffffffffffffffffffff1673ffffffffffffffffffffffffffffffffffffffff16476040516103ae90610cbd565b5f6040518083038185875af1925050503d805f81146103e8576040519150601f19603f3d011682016040523d82523d5f602084013e6103ed565b606091505b5050905080610431576040517f08c379a000000000000000000000000000000000000000000000000000000000815260040161042890610d1b565b60405180910390fd5b50565b5f5f5f8373ffffffffffffffffffffffffffffffffffffffff1673ffffffffffffffffffffffffffffffffffffffff1681526020019081526020015f20549050919050565b60035481565b5f602052805f5260405f205f915090505481565b61049b610866565b6104a3610888565b6104ab610866565b6104b3610888565b5f5f90505b6002805490508110156106cb575f600282815481106104da576104d9610d39565b5b905f5260205f20015f9054906101000a900473ffffffffffffffffffffffffffffffffffffffff1690505f5f5f8373ffffffffffffffffffffffffffffffffffffffff1673ffffffffffffffffffffffffffffffffffffffff1681526020019081526020015f205490505f5f90505b60038110156106bb5784816003811061056557610564610d39565b5b60200201518211156106ae575f600290505b81811115610640578560018261058d9190610d93565b6003811061059e5761059d610d39565b5b60200201518682600381106105b6576105b5610d39565b5b602002018181525050866001826105cd9190610d93565b600381106105de576105dd610d39565b5b60200201518782600381106105f6576105f5610d39565b5b602002019073ffffffffffffffffffffffffffffffffffffffff16908173ffffffffffffffffffffffffffffffffffffffff1681525050808061063890610dc6565b915050610577565b508185826003811061065557610654610d39565b5b6020020181815250508286826003811061067257610671610d39565b5b602002019073ffffffffffffffffffffffffffffffffffffffff16908173ffffffffffffffffffffffffffffffffffffffff16815250506106bb565b8080600101915050610549565b50505080806001019150506104b8565b5081819350935050509091565b5f341161071a576040517f08c379a000000000000000000000000000000000000000000000000000000000815260040161071190610e5d565b60405180910390fd5b5f5f5f3373ffffffffffffffffffffffffffffffffffffffff1673ffffffffffffffffffffffffffffffffffffffff1681526020019081526020015f2054036107be57600233908060018154018082558091505060019003905f5260205f20015f9091909190916101000a81548173ffffffffffffffffffffffffffffffffffffffff021916908373ffffffffffffffffffffffffffffffffffffffff1602179055505b345f5f3373ffffffffffffffffffffffffffffffffffffffff1673ffffffffffffffffffffffffffffffffffffffff1681526020019081526020015f205f8282546108099190610e7b565b925050819055503373ffffffffffffffffffffffffffffffffffffffff167f5d8bc849764969eb1bcc6d0a2f55999d0167c1ccec240a4f39cf664ca9c4148e3460405161085691906109b3565b60405180910390a2565b60045481565b6040518060600160405280600390602082028036833780820191505090505090565b6040518060600160405280600390602082028036833780820191505090505090565b5f5ffd5b5f819050919050565b6108c0816108ae565b81146108ca575f5ffd5b50565b5f813590506108db816108b7565b92915050565b5f5f604083850312156108f7576108f66108aa565b5b5f610904858286016108cd565b9250506020610915858286016108cd565b9150509250929050565b5f73ffffffffffffffffffffffffffffffffffffffff82169050919050565b5f6109488261091f565b9050919050565b6109588161093e565b8114610962575f5ffd5b50565b5f813590506109738161094f565b92915050565b5f6020828403121561098e5761098d6108aa565b5b5f61099b84828501610965565b91505092915050565b6109ad816108ae565b82525050565b5f6020820190506109c65f8301846109a4565b92915050565b5f60039050919050565b5f81905092915050565b5f819050919050565b6109f28161093e565b82525050565b5f610a0383836109e9565b60208301905092915050565b5f602082019050919050565b610a24816109cc565b610a2e81846109d6565b9250610a39826109e0565b805f5b83811015610a69578151610a5087826109f8565b9650610a5b83610a0f565b925050600181019050610a3c565b505050505050565b5f60039050919050565b5f81905092915050565b5f819050919050565b610a97816108ae565b82525050565b5f610aa88383610a8e565b60208301905092915050565b5f602082019050919050565b610ac981610a71565b610ad38184610a7b565b9250610ade82610a85565b805f5b83811015610b0e578151610af58782610a9d565b9650610b0083610ab4565b925050600181019050610ae1565b505050505050565b5f60c082019050610b295f830185610a1b565b610b366060830184610ac0565b9392505050565b5f82825260208201905092915050565b7f4f6e6c79206f776e65722063616e2063616c6c20746869732066756e6374696f5f8201527f6e00000000000000000000000000000000000000000000000000000000000000602082015250565b5f610ba7602183610b3d565b9150610bb282610b4d565b604082019050919050565b5f6020820190508181035f830152610bd481610b9b565b9050919050565b7f53746172742074696d65206d757374206265206265666f726520656e642074695f8201527f6d65000000000000000000000000000000000000000000000000000000000000602082015250565b5f610c35602283610b3d565b9150610c4082610bdb565b604082019050919050565b5f6020820190508181035f830152610c6281610c29565b9050919050565b5f604082019050610c7c5f8301856109a4565b610c8960208301846109a4565b9392505050565b5f81905092915050565b50565b5f610ca85f83610c90565b9150610cb382610c9a565b5f82019050919050565b5f610cc782610c9d565b9150819050919050565b7f5769746864726177616c206661696c65640000000000000000000000000000005f82015250565b5f610d05601183610b3d565b9150610d1082610cd1565b602082019050919050565b5f6020820190508181035f830152610d3281610cf9565b9050919050565b7f4e487b71000000000000000000000000000000000000000000000000000000005f52603260045260245ffd5b7f4e487b71000000000000000000000000000000000000000000000000000000005f52601160045260245ffd5b5f610d9d826108ae565b9150610da8836108ae565b9250828203905081811115610dc057610dbf610d66565b5b92915050565b5f610dd0826108ae565b91505f8203610de257610de1610d66565b5b600182039050919050565b7f446f6e6174696f6e20616d6f756e74206d7573742062652067726561746572205f8201527f7468616e20300000000000000000000000000000000000000000000000000000602082015250565b5f610e47602683610b3d565b9150610e5282610ded565b604082019050919050565b5f6020820190508181035f830152610e7481610e3b565b9050919050565b5f610e85826108ae565b9150610e90836108ae565b9250828201905080821115610ea857610ea7610d66565b5b9291505056fea2646970667358221220deeac31d0ccebdba20c24ab783951979bf4df8eba24bee2102f015156742f0e664736f6c634300081e0033",
					"opcodes": "PUSH1 0x80 PUSH1 0x40 MSTORE CALLVALUE DUP1 ISZERO PUSH1 0xE JUMPI PUSH0 PUSH0 REVERT JUMPDEST POP CALLER PUSH1 0x1 PUSH0 PUSH2 0x100 EXP DUP2 SLOAD DUP2 PUSH20 0xFFFFFFFFFFFFFFFFFFFFFFFFFFFFFFFFFFFFFFFF MUL NOT AND SWAP1 DUP4 PUSH20 0xFFFFFFFFFFFFFFFFFFFFFFFFFFFFFFFFFFFFFFFF AND MUL OR SWAP1 SSTORE POP PUSH2 0xEE4 DUP1 PUSH2 0x5C PUSH0 CODECOPY PUSH0 RETURN INVALID PUSH1 0x80 PUSH1 0x40 MSTORE PUSH1 0x4 CALLDATASIZE LT PUSH2 0x7A JUMPI PUSH0 CALLDATALOAD PUSH1 0xE0 SHR DUP1 PUSH4 0xCC6CB19A GT PUSH2 0x4D JUMPI DUP1 PUSH4 0xCC6CB19A EQ PUSH2 0x122 JUMPI DUP1 PUSH4 0xD6387ED8 EQ PUSH2 0x15E JUMPI DUP1 PUSH4 0xED88C68E EQ PUSH2 0x189 JUMPI DUP1 PUSH4 0xF12A4A53 EQ PUSH2 0x193 JUMPI PUSH2 0x7A JUMP JUMPDEST DUP1 PUSH4 0x1D3AB099 EQ PUSH2 0x7E JUMPI DUP1 PUSH4 0x3CCFD60B EQ PUSH2 0xA6 JUMPI DUP1 PUSH4 0x410A1D32 EQ PUSH2 0xBC JUMPI DUP1 PUSH4 0x78331552 EQ PUSH2 0xF8 JUMPI JUMPDEST PUSH0 PUSH0 REVERT JUMPDEST CALLVALUE DUP1 ISZERO PUSH2 0x89 JUMPI PUSH0 PUSH0 REVERT JUMPDEST POP PUSH2 0xA4 PUSH1 0x4 DUP1 CALLDATASIZE SUB DUP2 ADD SWAP1 PUSH2 0x9F SWAP2 SWAP1 PUSH2 0x8E1 JUMP JUMPDEST PUSH2 0x1BD JUMP JUMPDEST STOP JUMPDEST CALLVALUE DUP1 ISZERO PUSH2 0xB1 JUMPI PUSH0 PUSH0 REVERT JUMPDEST POP PUSH2 0xBA PUSH2 0x2D9 JUMP JUMPDEST STOP JUMPDEST CALLVALUE DUP1 ISZERO PUSH2 0xC7 JUMPI PUSH0 PUSH0 REVERT JUMPDEST POP PUSH2 0xE2 PUSH1 0x4 DUP1 CALLDATASIZE SUB DUP2 ADD SWAP1 PUSH2 0xDD SWAP2 SWAP1 PUSH2 0x979 JUMP JUMPDEST PUSH2 0x434 JUMP JUMPDEST PUSH1 0x40 MLOAD PUSH2 0xEF SWAP2 SWAP1 PUSH2 0x9B3 JUMP JUMPDEST PUSH1 0x40 MLOAD DUP1 SWAP2 SUB SWAP1 RETURN JUMPDEST CALLVALUE DUP1 ISZERO PUSH2 0x103 JUMPI PUSH0 PUSH0 REVERT JUMPDEST POP PUSH2 0x10C PUSH2 0x479 JUMP JUMPDEST PUSH1 0x40 MLOAD PUSH2 0x119 SWAP2 SWAP1 PUSH2 0x9B3 JUMP JUMPDEST PUSH1 0x40 MLOAD DUP1 SWAP2 SUB SWAP1 RETURN JUMPDEST CALLVALUE DUP1 ISZERO PUSH2 0x12D JUMPI PUSH0 PUSH0 REVERT JUMPDEST POP PUSH2 0x148 PUSH1 0x4 DUP1 CALLDATASIZE SUB DUP2 ADD SWAP1 PUSH2 0x143 SWAP2 SWAP1 PUSH2 0x979 JUMP JUMPDEST PUSH2 0x47F JUMP JUMPDEST PUSH1 0x40 MLOAD PUSH2 0x155 SWAP2 SWAP1 PUSH2 0x9B3 JUMP JUMPDEST PUSH1 0x40 MLOAD DUP1 SWAP2 SUB SWAP1 RETURN JUMPDEST CALLVALUE DUP1 ISZERO PUSH2 0x169 JUMPI PUSH0 PUSH0 REVERT JUMPDEST POP PUSH2 0x172 PUSH2 0x493 JUMP JUMPDEST PUSH1 0x40 MLOAD PUSH2 0x180 SWAP3 SWAP2 SWAP1 PUSH2 0xB16 JUMP JUMPDEST PUSH1 0x40 MLOAD DUP1 SWAP2 SUB SWAP1 RETURN JUMPDEST PUSH2 0x191 PUSH2 0x6D8 JUMP JUMPDEST STOP JUMPDEST CALLVALUE DUP1 ISZERO PUSH2 0x19E JUMPI PUSH0 PUSH0 REVERT JUMPDEST POP PUSH2 0x1A7 PUSH2 0x860 JUMP JUMPDEST PUSH1 0x40 MLOAD PUSH2 0x1B4 SWAP2 SWAP1 PUSH2 0x9B3 JUMP JUMPDEST PUSH1 0x40 MLOAD DUP1 SWAP2 SUB SWAP1 RETURN JUMPDEST PUSH1 0x1 PUSH0 SWAP1 SLOAD SWAP1 PUSH2 0x100 EXP SWAP1 DIV PUSH20 0xFFFFFFFFFFFFFFFFFFFFFFFFFFFFFFFFFFFFFFFF AND PUSH20 0xFFFFFFFFFFFFFFFFFFFFFFFFFFFFFFFFFFFFFFFF AND CALLER PUSH20 0xFFFFFFFFFFFFFFFFFFFFFFFFFFFFFFFFFFFFFFFF AND EQ PUSH2 0x24C JUMPI PUSH1 0x40 MLOAD PUSH32 0x8C379A000000000000000000000000000000000000000000000000000000000 DUP2 MSTORE PUSH1 0x4 ADD PUSH2 0x243 SWAP1 PUSH2 0xBBD JUMP JUMPDEST PUSH1 0x40 MLOAD DUP1 SWAP2 SUB SWAP1 REVERT JUMPDEST DUP1 DUP3 LT PUSH2 0x28E JUMPI PUSH1 0x40 MLOAD PUSH32 0x8C379A000000000000000000000000000000000000000000000000000000000 DUP2 MSTORE PUSH1 0x4 ADD PUSH2 0x285 SWAP1 PUSH2 0xC4B JUMP JUMPDEST PUSH1 0x40 MLOAD DUP1 SWAP2 SUB SWAP1 REVERT JUMPDEST DUP2 PUSH1 0x3 DUP2 SWAP1 SSTORE POP DUP1 PUSH1 0x4 DUP2 SWAP1 SSTORE POP PUSH32 0xEBA8616B6CBCF6DD18B28CA1A9205EAC87BF5BD8649C3BC96B62287A9F1AFE2B DUP3 DUP3 PUSH1 0x40 MLOAD PUSH2 0x2CD SWAP3 SWAP2 SWAP1 PUSH2 0xC69 JUMP JUMPDEST PUSH1 0x40 MLOAD DUP1 SWAP2 SUB SWAP1 LOG1 POP POP JUMP JUMPDEST PUSH1 0x1 PUSH0 SWAP1 SLOAD SWAP1 PUSH2 0x100 EXP SWAP1 DIV PUSH20 0xFFFFFFFFFFFFFFFFFFFFFFFFFFFFFFFFFFFFFFFF AND PUSH20 0xFFFFFFFFFFFFFFFFFFFFFFFFFFFFFFFFFFFFFFFF AND CALLER PUSH20 0xFFFFFFFFFFFFFFFFFFFFFFFFFFFFFFFFFFFFFFFF AND EQ PUSH2 0x368 JUMPI PUSH1 0x40 MLOAD PUSH32 0x8C379A000000000000000000000000000000000000000000000000000000000 DUP2 MSTORE PUSH1 0x4 ADD PUSH2 0x35F SWAP1 PUSH2 0xBBD JUMP JUMPDEST PUSH1 0x40 MLOAD DUP1 SWAP2 SUB SWAP1 REVERT JUMPDEST PUSH0 PUSH1 0x1 PUSH0 SWAP1 SLOAD SWAP1 PUSH2 0x100 EXP SWAP1 DIV PUSH20 0xFFFFFFFFFFFFFFFFFFFFFFFFFFFFFFFFFFFFFFFF AND PUSH20 0xFFFFFFFFFFFFFFFFFFFFFFFFFFFFFFFFFFFFFFFF AND SELFBALANCE PUSH1 0x40 MLOAD PUSH2 0x3AE SWAP1 PUSH2 0xCBD JUMP JUMPDEST PUSH0 PUSH1 0x40 MLOAD DUP1 DUP4 SUB DUP2 DUP6 DUP8 GAS CALL SWAP3 POP POP POP RETURNDATASIZE DUP1 PUSH0 DUP2 EQ PUSH2 0x3E8 JUMPI PUSH1 0x40 MLOAD SWAP2 POP PUSH1 0x1F NOT PUSH1 0x3F RETURNDATASIZE ADD AND DUP3 ADD PUSH1 0x40 MSTORE RETURNDATASIZE DUP3 MSTORE RETURNDATASIZE PUSH0 PUSH1 0x20 DUP5 ADD RETURNDATACOPY PUSH2 0x3ED JUMP JUMPDEST PUSH1 0x60 SWAP2 POP JUMPDEST POP POP SWAP1 POP DUP1 PUSH2 0x431 JUMPI PUSH1 0x40 MLOAD PUSH32 0x8C379A000000000000000000000000000000000000000000000000000000000 DUP2 MSTORE PUSH1 0x4 ADD PUSH2 0x428 SWAP1 PUSH2 0xD1B JUMP JUMPDEST PUSH1 0x40 MLOAD DUP1 SWAP2 SUB SWAP1 REVERT JUMPDEST POP JUMP JUMPDEST PUSH0 PUSH0 PUSH0 DUP4 PUSH20 0xFFFFFFFFFFFFFFFFFFFFFFFFFFFFFFFFFFFFFFFF AND PUSH20 0xFFFFFFFFFFFFFFFFFFFFFFFFFFFFFFFFFFFFFFFF AND DUP2 MSTORE PUSH1 0x20 ADD SWAP1 DUP2 MSTORE PUSH1 0x20 ADD PUSH0 KECCAK256 SLOAD SWAP1 POP SWAP2 SWAP1 POP JUMP JUMPDEST PUSH1 0x3 SLOAD DUP2 JUMP JUMPDEST PUSH0 PUSH1 0x20 MSTORE DUP1 PUSH0 MSTORE PUSH1 0x40 PUSH0 KECCAK256 PUSH0 SWAP2 POP SWAP1 POP SLOAD DUP2 JUMP JUMPDEST PUSH2 0x49B PUSH2 0x866 JUMP JUMPDEST PUSH2 0x4A3 PUSH2 0x888 JUMP JUMPDEST PUSH2 0x4AB PUSH2 0x866 JUMP JUMPDEST PUSH2 0x4B3 PUSH2 0x888 JUMP JUMPDEST PUSH0 PUSH0 SWAP1 POP JUMPDEST PUSH1 0x2 DUP1 SLOAD SWAP1 POP DUP2 LT ISZERO PUSH2 0x6CB JUMPI PUSH0 PUSH1 0x2 DUP3 DUP2 SLOAD DUP2 LT PUSH2 0x4DA JUMPI PUSH2 0x4D9 PUSH2 0xD39 JUMP JUMPDEST JUMPDEST SWAP1 PUSH0 MSTORE PUSH1 0x20 PUSH0 KECCAK256 ADD PUSH0 SWAP1 SLOAD SWAP1 PUSH2 0x100 EXP SWAP1 DIV PUSH20 0xFFFFFFFFFFFFFFFFFFFFFFFFFFFFFFFFFFFFFFFF AND SWAP1 POP PUSH0 PUSH0 PUSH0 DUP4 PUSH20 0xFFFFFFFFFFFFFFFFFFFFFFFFFFFFFFFFFFFFFFFF AND PUSH20 0xFFFFFFFFFFFFFFFFFFFFFFFFFFFFFFFFFFFFFFFF AND DUP2 MSTORE PUSH1 0x20 ADD SWAP1 DUP2 MSTORE PUSH1 0x20 ADD PUSH0 KECCAK256 SLOAD SWAP1 POP PUSH0 PUSH0 SWAP1 POP JUMPDEST PUSH1 0x3 DUP2 LT ISZERO PUSH2 0x6BB JUMPI DUP5 DUP2 PUSH1 0x3 DUP2 LT PUSH2 0x565 JUMPI PUSH2 0x564 PUSH2 0xD39 JUMP JUMPDEST JUMPDEST PUSH1 0x20 MUL ADD MLOAD DUP3 GT ISZERO PUSH2 0x6AE JUMPI PUSH0 PUSH1 0x2 SWAP1 POP JUMPDEST DUP2 DUP2 GT ISZERO PUSH2 0x640 JUMPI DUP6 PUSH1 0x1 DUP3 PUSH2 0x58D SWAP2 SWAP1 PUSH2 0xD93 JUMP JUMPDEST PUSH1 0x3 DUP2 LT PUSH2 0x59E JUMPI PUSH2 0x59D PUSH2 0xD39 JUMP JUMPDEST JUMPDEST PUSH1 0x20 MUL ADD MLOAD DUP7 DUP3 PUSH1 0x3 DUP2 LT PUSH2 0x5B6 JUMPI PUSH2 0x5B5 PUSH2 0xD39 JUMP JUMPDEST JUMPDEST PUSH1 0x20 MUL ADD DUP2 DUP2 MSTORE POP POP DUP7 PUSH1 0x1 DUP3 PUSH2 0x5CD SWAP2 SWAP1 PUSH2 0xD93 JUMP JUMPDEST PUSH1 0x3 DUP2 LT PUSH2 0x5DE JUMPI PUSH2 0x5DD PUSH2 0xD39 JUMP JUMPDEST JUMPDEST PUSH1 0x20 MUL ADD MLOAD DUP8 DUP3 PUSH1 0x3 DUP2 LT PUSH2 0x5F6 JUMPI PUSH2 0x5F5 PUSH2 0xD39 JUMP JUMPDEST JUMPDEST PUSH1 0x20 MUL ADD SWAP1 PUSH20 0xFFFFFFFFFFFFFFFFFFFFFFFFFFFFFFFFFFFFFFFF AND SWAP1 DUP2 PUSH20 0xFFFFFFFFFFFFFFFFFFFFFFFFFFFFFFFFFFFFFFFF AND DUP2 MSTORE POP POP DUP1 DUP1 PUSH2 0x638 SWAP1 PUSH2 0xDC6 JUMP JUMPDEST SWAP2 POP POP PUSH2 0x577 JUMP JUMPDEST POP DUP2 DUP6 DUP3 PUSH1 0x3 DUP2 LT PUSH2 0x655 JUMPI PUSH2 0x654 PUSH2 0xD39 JUMP JUMPDEST JUMPDEST PUSH1 0x20 MUL ADD DUP2 DUP2 MSTORE POP POP DUP3 DUP7 DUP3 PUSH1 0x3 DUP2 LT PUSH2 0x672 JUMPI PUSH2 0x671 PUSH2 0xD39 JUMP JUMPDEST JUMPDEST PUSH1 0x20 MUL ADD SWAP1 PUSH20 0xFFFFFFFFFFFFFFFFFFFFFFFFFFFFFFFFFFFFFFFF AND SWAP1 DUP2 PUSH20 0xFFFFFFFFFFFFFFFFFFFFFFFFFFFFFFFFFFFFFFFF AND DUP2 MSTORE POP POP PUSH2 0x6BB JUMP JUMPDEST DUP1 DUP1 PUSH1 0x1 ADD SWAP2 POP POP PUSH2 0x549 JUMP JUMPDEST POP POP POP DUP1 DUP1 PUSH1 0x1 ADD SWAP2 POP POP PUSH2 0x4B8 JUMP JUMPDEST POP DUP2 DUP2 SWAP4 POP SWAP4 POP POP POP SWAP1 SWAP2 JUMP JUMPDEST PUSH0 CALLVALUE GT PUSH2 0x71A JUMPI PUSH1 0x40 MLOAD PUSH32 0x8C379A000000000000000000000000000000000000000000000000000000000 DUP2 MSTORE PUSH1 0x4 ADD PUSH2 0x711 SWAP1 PUSH2 0xE5D JUMP JUMPDEST PUSH1 0x40 MLOAD DUP1 SWAP2 SUB SWAP1 REVERT JUMPDEST PUSH0 PUSH0 PUSH0 CALLER PUSH20 0xFFFFFFFFFFFFFFFFFFFFFFFFFFFFFFFFFFFFFFFF AND PUSH20 0xFFFFFFFFFFFFFFFFFFFFFFFFFFFFFFFFFFFFFFFF AND DUP2 MSTORE PUSH1 0x20 ADD SWAP1 DUP2 MSTORE PUSH1 0x20 ADD PUSH0 KECCAK256 SLOAD SUB PUSH2 0x7BE JUMPI PUSH1 0x2 CALLER SWAP1 DUP1 PUSH1 0x1 DUP2 SLOAD ADD DUP1 DUP3 SSTORE DUP1 SWAP2 POP POP PUSH1 0x1 SWAP1 SUB SWAP1 PUSH0 MSTORE PUSH1 0x20 PUSH0 KECCAK256 ADD PUSH0 SWAP1 SWAP2 SWAP1 SWAP2 SWAP1 SWAP2 PUSH2 0x100 EXP DUP2 SLOAD DUP2 PUSH20 0xFFFFFFFFFFFFFFFFFFFFFFFFFFFFFFFFFFFFFFFF MUL NOT AND SWAP1 DUP4 PUSH20 0xFFFFFFFFFFFFFFFFFFFFFFFFFFFFFFFFFFFFFFFF AND MUL OR SWAP1 SSTORE POP JUMPDEST CALLVALUE PUSH0 PUSH0 CALLER PUSH20 0xFFFFFFFFFFFFFFFFFFFFFFFFFFFFFFFFFFFFFFFF AND PUSH20 0xFFFFFFFFFFFFFFFFFFFFFFFFFFFFFFFFFFFFFFFF AND DUP2 MSTORE PUSH1 0x20 ADD SWAP1 DUP2 MSTORE PUSH1 0x20 ADD PUSH0 KECCAK256 PUSH0 DUP3 DUP3 SLOAD PUSH2 0x809 SWAP2 SWAP1 PUSH2 0xE7B JUMP JUMPDEST SWAP3 POP POP DUP2 SWAP1 SSTORE POP CALLER PUSH20 0xFFFFFFFFFFFFFFFFFFFFFFFFFFFFFFFFFFFFFFFF AND PUSH32 0x5D8BC849764969EB1BCC6D0A2F55999D0167C1CCEC240A4F39CF664CA9C4148E CALLVALUE PUSH1 0x40 MLOAD PUSH2 0x856 SWAP2 SWAP1 PUSH2 0x9B3 JUMP JUMPDEST PUSH1 0x40 MLOAD DUP1 SWAP2 SUB SWAP1 LOG2 JUMP JUMPDEST PUSH1 0x4 SLOAD DUP2 JUMP JUMPDEST PUSH1 0x40 MLOAD DUP1 PUSH1 0x60 ADD PUSH1 0x40 MSTORE DUP1 PUSH1 0x3 SWAP1 PUSH1 0x20 DUP3 MUL DUP1 CALLDATASIZE DUP4 CALLDATACOPY DUP1 DUP3 ADD SWAP2 POP POP SWAP1 POP POP SWAP1 JUMP JUMPDEST PUSH1 0x40 MLOAD DUP1 PUSH1 0x60 ADD PUSH1 0x40 MSTORE DUP1 PUSH1 0x3 SWAP1 PUSH1 0x20 DUP3 MUL DUP1 CALLDATASIZE DUP4 CALLDATACOPY DUP1 DUP3 ADD SWAP2 POP POP SWAP1 POP POP SWAP1 JUMP JUMPDEST PUSH0 PUSH0 REVERT JUMPDEST PUSH0 DUP2 SWAP1 POP SWAP2 SWAP1 POP JUMP JUMPDEST PUSH2 0x8C0 DUP2 PUSH2 0x8AE JUMP JUMPDEST DUP2 EQ PUSH2 0x8CA JUMPI PUSH0 PUSH0 REVERT JUMPDEST POP JUMP JUMPDEST PUSH0 DUP2 CALLDATALOAD SWAP1 POP PUSH2 0x8DB DUP2 PUSH2 0x8B7 JUMP JUMPDEST SWAP3 SWAP2 POP POP JUMP JUMPDEST PUSH0 PUSH0 PUSH1 0x40 DUP4 DUP6 SUB SLT ISZERO PUSH2 0x8F7 JUMPI PUSH2 0x8F6 PUSH2 0x8AA JUMP JUMPDEST JUMPDEST PUSH0 PUSH2 0x904 DUP6 DUP3 DUP7 ADD PUSH2 0x8CD JUMP JUMPDEST SWAP3 POP POP PUSH1 0x20 PUSH2 0x915 DUP6 DUP3 DUP7 ADD PUSH2 0x8CD JUMP JUMPDEST SWAP2 POP POP SWAP3 POP SWAP3 SWAP1 POP JUMP JUMPDEST PUSH0 PUSH20 0xFFFFFFFFFFFFFFFFFFFFFFFFFFFFFFFFFFFFFFFF DUP3 AND SWAP1 POP SWAP2 SWAP1 POP JUMP JUMPDEST PUSH0 PUSH2 0x948 DUP3 PUSH2 0x91F JUMP JUMPDEST SWAP1 POP SWAP2 SWAP1 POP JUMP JUMPDEST PUSH2 0x958 DUP2 PUSH2 0x93E JUMP JUMPDEST DUP2 EQ PUSH2 0x962 JUMPI PUSH0 PUSH0 REVERT JUMPDEST POP JUMP JUMPDEST PUSH0 DUP2 CALLDATALOAD SWAP1 POP PUSH2 0x973 DUP2 PUSH2 0x94F JUMP JUMPDEST SWAP3 SWAP2 POP POP JUMP JUMPDEST PUSH0 PUSH1 0x20 DUP3 DUP5 SUB SLT ISZERO PUSH2 0x98E JUMPI PUSH2 0x98D PUSH2 0x8AA JUMP JUMPDEST JUMPDEST PUSH0 PUSH2 0x99B DUP5 DUP3 DUP6 ADD PUSH2 0x965 JUMP JUMPDEST SWAP2 POP POP SWAP3 SWAP2 POP POP JUMP JUMPDEST PUSH2 0x9AD DUP2 PUSH2 0x8AE JUMP JUMPDEST DUP3 MSTORE POP POP JUMP JUMPDEST PUSH0 PUSH1 0x20 DUP3 ADD SWAP1 POP PUSH2 0x9C6 PUSH0 DUP4 ADD DUP5 PUSH2 0x9A4 JUMP JUMPDEST SWAP3 SWAP2 POP POP JUMP JUMPDEST PUSH0 PUSH1 0x3 SWAP1 POP SWAP2 SWAP1 POP JUMP JUMPDEST PUSH0 DUP2 SWAP1 POP SWAP3 SWAP2 POP POP JUMP JUMPDEST PUSH0 DUP2 SWAP1 POP SWAP2 SWAP1 POP JUMP JUMPDEST PUSH2 0x9F2 DUP2 PUSH2 0x93E JUMP JUMPDEST DUP3 MSTORE POP POP JUMP JUMPDEST PUSH0 PUSH2 0xA03 DUP4 DUP4 PUSH2 0x9E9 JUMP JUMPDEST PUSH1 0x20 DUP4 ADD SWAP1 POP SWAP3 SWAP2 POP POP JUMP JUMPDEST PUSH0 PUSH1 0x20 DUP3 ADD SWAP1 POP SWAP2 SWAP1 POP JUMP JUMPDEST PUSH2 0xA24 DUP2 PUSH2 0x9CC JUMP JUMPDEST PUSH2 0xA2E DUP2 DUP5 PUSH2 0x9D6 JUMP JUMPDEST SWAP3 POP PUSH2 0xA39 DUP3 PUSH2 0x9E0 JUMP JUMPDEST DUP1 PUSH0 JUMPDEST DUP4 DUP2 LT ISZERO PUSH2 0xA69 JUMPI DUP2 MLOAD PUSH2 0xA50 DUP8 DUP3 PUSH2 0x9F8 JUMP JUMPDEST SWAP7 POP PUSH2 0xA5B DUP4 PUSH2 0xA0F JUMP JUMPDEST SWAP3 POP POP PUSH1 0x1 DUP2 ADD SWAP1 POP PUSH2 0xA3C JUMP JUMPDEST POP POP POP POP POP POP JUMP JUMPDEST PUSH0 PUSH1 0x3 SWAP1 POP SWAP2 SWAP1 POP JUMP JUMPDEST PUSH0 DUP2 SWAP1 POP SWAP3 SWAP2 POP POP JUMP JUMPDEST PUSH0 DUP2 SWAP1 POP SWAP2 SWAP1 POP JUMP JUMPDEST PUSH2 0xA97 DUP2 PUSH2 0x8AE JUMP JUMPDEST DUP3 MSTORE POP POP JUMP JUMPDEST PUSH0 PUSH2 0xAA8 DUP4 DUP4 PUSH2 0xA8E JUMP JUMPDEST PUSH1 0x20 DUP4 ADD SWAP1 POP SWAP3 SWAP2 POP POP JUMP JUMPDEST PUSH0 PUSH1 0x20 DUP3 ADD SWAP1 POP SWAP2 SWAP1 POP JUMP JUMPDEST PUSH2 0xAC9 DUP2 PUSH2 0xA71 JUMP JUMPDEST PUSH2 0xAD3 DUP2 DUP5 PUSH2 0xA7B JUMP JUMPDEST SWAP3 POP PUSH2 0xADE DUP3 PUSH2 0xA85 JUMP JUMPDEST DUP1 PUSH0 JUMPDEST DUP4 DUP2 LT ISZERO PUSH2 0xB0E JUMPI DUP2 MLOAD PUSH2 0xAF5 DUP8 DUP3 PUSH2 0xA9D JUMP JUMPDEST SWAP7 POP PUSH2 0xB00 DUP4 PUSH2 0xAB4 JUMP JUMPDEST SWAP3 POP POP PUSH1 0x1 DUP2 ADD SWAP1 POP PUSH2 0xAE1 JUMP JUMPDEST POP POP POP POP POP POP JUMP JUMPDEST PUSH0 PUSH1 0xC0 DUP3 ADD SWAP1 POP PUSH2 0xB29 PUSH0 DUP4 ADD DUP6 PUSH2 0xA1B JUMP JUMPDEST PUSH2 0xB36 PUSH1 0x60 DUP4 ADD DUP5 PUSH2 0xAC0 JUMP JUMPDEST SWAP4 SWAP3 POP POP POP JUMP JUMPDEST PUSH0 DUP3 DUP3 MSTORE PUSH1 0x20 DUP3 ADD SWAP1 POP SWAP3 SWAP2 POP POP JUMP JUMPDEST PUSH32 0x4F6E6C79206F776E65722063616E2063616C6C20746869732066756E6374696F PUSH0 DUP3 ADD MSTORE PUSH32 0x6E00000000000000000000000000000000000000000000000000000000000000 PUSH1 0x20 DUP3 ADD MSTORE POP JUMP JUMPDEST PUSH0 PUSH2 0xBA7 PUSH1 0x21 DUP4 PUSH2 0xB3D JUMP JUMPDEST SWAP2 POP PUSH2 0xBB2 DUP3 PUSH2 0xB4D JUMP JUMPDEST PUSH1 0x40 DUP3 ADD SWAP1 POP SWAP2 SWAP1 POP JUMP JUMPDEST PUSH0 PUSH1 0x20 DUP3 ADD SWAP1 POP DUP2 DUP2 SUB PUSH0 DUP4 ADD MSTORE PUSH2 0xBD4 DUP2 PUSH2 0xB9B JUMP JUMPDEST SWAP1 POP SWAP2 SWAP1 POP JUMP JUMPDEST PUSH32 0x53746172742074696D65206D757374206265206265666F726520656E64207469 PUSH0 DUP3 ADD MSTORE PUSH32 0x6D65000000000000000000000000000000000000000000000000000000000000 PUSH1 0x20 DUP3 ADD MSTORE POP JUMP JUMPDEST PUSH0 PUSH2 0xC35 PUSH1 0x22 DUP4 PUSH2 0xB3D JUMP JUMPDEST SWAP2 POP PUSH2 0xC40 DUP3 PUSH2 0xBDB JUMP JUMPDEST PUSH1 0x40 DUP3 ADD SWAP1 POP SWAP2 SWAP1 POP JUMP JUMPDEST PUSH0 PUSH1 0x20 DUP3 ADD SWAP1 POP DUP2 DUP2 SUB PUSH0 DUP4 ADD MSTORE PUSH2 0xC62 DUP2 PUSH2 0xC29 JUMP JUMPDEST SWAP1 POP SWAP2 SWAP1 POP JUMP JUMPDEST PUSH0 PUSH1 0x40 DUP3 ADD SWAP1 POP PUSH2 0xC7C PUSH0 DUP4 ADD DUP6 PUSH2 0x9A4 JUMP JUMPDEST PUSH2 0xC89 PUSH1 0x20 DUP4 ADD DUP5 PUSH2 0x9A4 JUMP JUMPDEST SWAP4 SWAP3 POP POP POP JUMP JUMPDEST PUSH0 DUP2 SWAP1 POP SWAP3 SWAP2 POP POP JUMP JUMPDEST POP JUMP JUMPDEST PUSH0 PUSH2 0xCA8 PUSH0 DUP4 PUSH2 0xC90 JUMP JUMPDEST SWAP2 POP PUSH2 0xCB3 DUP3 PUSH2 0xC9A JUMP JUMPDEST PUSH0 DUP3 ADD SWAP1 POP SWAP2 SWAP1 POP JUMP JUMPDEST PUSH0 PUSH2 0xCC7 DUP3 PUSH2 0xC9D JUMP JUMPDEST SWAP2 POP DUP2 SWAP1 POP SWAP2 SWAP1 POP JUMP JUMPDEST PUSH32 0x5769746864726177616C206661696C6564000000000000000000000000000000 PUSH0 DUP3 ADD MSTORE POP JUMP JUMPDEST PUSH0 PUSH2 0xD05 PUSH1 0x11 DUP4 PUSH2 0xB3D JUMP JUMPDEST SWAP2 POP PUSH2 0xD10 DUP3 PUSH2 0xCD1 JUMP JUMPDEST PUSH1 0x20 DUP3 ADD SWAP1 POP SWAP2 SWAP1 POP JUMP JUMPDEST PUSH0 PUSH1 0x20 DUP3 ADD SWAP1 POP DUP2 DUP2 SUB PUSH0 DUP4 ADD MSTORE PUSH2 0xD32 DUP2 PUSH2 0xCF9 JUMP JUMPDEST SWAP1 POP SWAP2 SWAP1 POP JUMP JUMPDEST PUSH32 0x4E487B7100000000000000000000000000000000000000000000000000000000 PUSH0 MSTORE PUSH1 0x32 PUSH1 0x4 MSTORE PUSH1 0x24 PUSH0 REVERT JUMPDEST PUSH32 0x4E487B7100000000000000000000000000000000000000000000000000000000 PUSH0 MSTORE PUSH1 0x11 PUSH1 0x4 MSTORE PUSH1 0x24 PUSH0 REVERT JUMPDEST PUSH0 PUSH2 0xD9D DUP3 PUSH2 0x8AE JUMP JUMPDEST SWAP2 POP PUSH2 0xDA8 DUP4 PUSH2 0x8AE JUMP JUMPDEST SWAP3 POP DUP3 DUP3 SUB SWAP1 POP DUP2 DUP2 GT ISZERO PUSH2 0xDC0 JUMPI PUSH2 0xDBF PUSH2 0xD66 JUMP JUMPDEST JUMPDEST SWAP3 SWAP2 POP POP JUMP JUMPDEST PUSH0 PUSH2 0xDD0 DUP3 PUSH2 0x8AE JUMP JUMPDEST SWAP2 POP PUSH0 DUP3 SUB PUSH2 0xDE2 JUMPI PUSH2 0xDE1 PUSH2 0xD66 JUMP JUMPDEST JUMPDEST PUSH1 0x1 DUP3 SUB SWAP1 POP SWAP2 SWAP1 POP JUMP JUMPDEST PUSH32 0x446F6E6174696F6E20616D6F756E74206D757374206265206772656174657220 PUSH0 DUP3 ADD MSTORE PUSH32 0x7468616E20300000000000000000000000000000000000000000000000000000 PUSH1 0x20 DUP3 ADD MSTORE POP JUMP JUMPDEST PUSH0 PUSH2 0xE47 PUSH1 0x26 DUP4 PUSH2 0xB3D JUMP JUMPDEST SWAP2 POP PUSH2 0xE52 DUP3 PUSH2 0xDED JUMP JUMPDEST PUSH1 0x40 DUP3 ADD SWAP1 POP SWAP2 SWAP1 POP JUMP JUMPDEST PUSH0 PUSH1 0x20 DUP3 ADD SWAP1 POP DUP2 DUP2 SUB PUSH0 DUP4 ADD MSTORE PUSH2 0xE74 DUP2 PUSH2 0xE3B JUMP JUMPDEST SWAP1 POP SWAP2 SWAP1 POP JUMP JUMPDEST PUSH0 PUSH2 0xE85 DUP3 PUSH2 0x8AE JUMP JUMPDEST SWAP2 POP PUSH2 0xE90 DUP4 PUSH2 0x8AE JUMP JUMPDEST SWAP3 POP DUP3 DUP3 ADD SWAP1 POP DUP1 DUP3 GT ISZERO PUSH2 0xEA8 JUMPI PUSH2 0xEA7 PUSH2 0xD66 JUMP JUMPDEST JUMPDEST SWAP3 SWAP2 POP POP JUMP INVALID LOG2 PUSH5 0x6970667358 0x22 SLT KECCAK256 0xDE 0xEA 0xC3 SAR 0xC 0xCE 0xBD 0xBA KECCAK256 0xC2 BLOBBASEFEE 0xB7 DUP4 SWAP6 NOT PUSH26 0xBF4DF8EBA24BEE2102F015156742F0E664736F6C634300081E00 CALLER "
				},
				"gasEstimates": {
					"creation": {
						"codeDepositCost": "762400",
						"executionCost": "25062",
						"totalCost": "787462"
					},
					"external": {
						"donate()": "infinite",
						"donationEndTime()": "2491",
						"donationStartTime()": "2492",
						"donations(address)": "2801",
						"getDonation(address)": "2873",
						"getTopDonors()": "infinite",
						"setDonationPeriod(uint256,uint256)": "infinite",
						"withdraw()": "infinite"
					}
				},
				"methodIdentifiers": {
					"donate()": "ed88c68e",
					"donationEndTime()": "f12a4a53",
					"donationStartTime()": "78331552",
					"donations(address)": "cc6cb19a",
					"getDonation(address)": "410a1d32",
					"getTopDonors()": "d6387ed8",
					"setDonationPeriod(uint256,uint256)": "1d3ab099",
					"withdraw()": "3ccfd60b"
				}
			},
			"storageLayout": {
				"storage": [
					{
						"astId": 5,
						"contract": "hw3/BeggingContract.sol:BeggingContract",
						"label": "donations",
						"offset": 0,
						"slot": "0",
						"type": "t_mapping(t_address,t_uint256)"
					},
					{
						"astId": 7,
						"contract": "hw3/BeggingContract.sol:BeggingContract",
						"label": "_owner",
						"offset": 0,
						"slot": "1",
						"type": "t_address"
					},
					{
						"astId": 10,
						"contract": "hw3/BeggingContract.sol:BeggingContract",
						"label": "_accounts",
						"offset": 0,
						"slot": "2",
						"type": "t_array(t_address)dyn_storage"
					},
					{
						"astId": 12,
						"contract": "hw3/BeggingContract.sol:BeggingContract",
						"label": "donationStartTime",
						"offset": 0,
						"slot": "3",
						"type": "t_uint256"
					},
					{
						"astId": 14,
						"contract": "hw3/BeggingContract.sol:BeggingContract",
						"label": "donationEndTime",
						"offset": 0,
						"slot": "4",
						"type": "t_uint256"
					}
				],
				"types": {
					"t_address": {
						"encoding": "inplace",
						"label": "address",
						"numberOfBytes": "20"
					},
					"t_array(t_address)dyn_storage": {
						"base": "t_address",
						"encoding": "dynamic_array",
						"label": "address[]",
						"numberOfBytes": "32"
					},
					"t_mapping(t_address,t_uint256)": {
						"encoding": "mapping",
						"key": "t_address",
						"label": "mapping(address => uint256)",
						"numberOfBytes": "32",
						"value": "t_uint256"
					},
					"t_uint256": {
						"encoding": "inplace",
						"label": "uint256",
						"numberOfBytes": "32"
					}
				}
			},
			"userdoc": {
				"kind": "user",
				"methods": {},
				"version": 1
			}
		}
	}
}